:020000040800F2
:10000000F0140020857100088D7100088F710008C0
:1000100091710008937100089571000800000000BC
:1000200000000000000000000000000097710008C0
:1000300099710008000000009B7100089D71000884
:100040009F7100089F7100089F7100089F71000850
:100050009F7100089F710008D5090008190B00085E
:100060009F7100089F7100089F7100089F71000830
:100070009F7100089F7100089F7100089F71000820
:100080009F7100089F710008B30200089F7100086B
:100090009F7100089F7100089F710008170C0008ED
:1000A0009F7100089F7100089F7100089F710008F0
:1000B0009F710008C91E00085F1400089F710008A6
:1000C0009F7100089F7100089F7100089F710008D0
:1000D0009F7100089F7100089F7100089F710008C0
:1000E0009F7100089F7100089F7100089F710008B0
:1000F000551E00088D1E00089F7100089F710008A2
:100100009F7100089F7100088F1800089F710008F8
:100110009F7100089F710008952000086D1F00085E
:100120009F7100089F7100089F7100089F7100086F
:100130009F7100089F7100089F7100089F7100085F
:100140009F7100089F7100089F7100089F7100084F
:100150009F7100089F7100089F7100089F7100083F
:100160009F7100089F7100089F7100089F7100082F
:100170009F7100089F7100089F7100089F7100081F
:100180009F7100089F71000800F002F800F05CF811
:100190000AA090E8000C82448344AAF10107DA45E2
:1001A00001D100F051F8AFF2090EBAE80F0013F0D8
:1001B000010F18BFFB1A43F001031847147A00001F
:1001C000347A00000A444FF0000C10F8013B13F0A1
:1001D000070408BF10F8014B1D1108BF10F8015BA0
:1001E000641E05D010F8016B641E01F8016BF9D193
:1001F00013F0080F1EBF10F8014BAD1C0C1B09D1EA
:100200006D1E58BF01F801CBFAD505E014F8016B5B
:1002100001F8016B6D1EF9D59142D6D370470000ED
:100220000023002400250026103A28BF78C1FBD8FF
:10023000520728BF30C148BF0B6070471FB507F099
:10024000C1FC1FBD10B510BD07F05AF81146FFF7ED
:10025000F5FF03F074FD07F078F803B4FFF7F2FF41
:1002600003BC07F07FF8000010B5002804DB0A0784
:10027000130EFE4A135406E00A07140EFC4A00F05F
:100280000F031B1FD45410BD10B586B0044601A83F
:1002900005F0A3FCF7490298B0FBF1F0604305902C
:1002A00002E00598401E059005980028F9D106B097
:1002B00010BD70B5002504F0F3FC70B1EE48007875
:1002C000472803DB002004F0BBFA14E0EA49097870
:1002D000491CC8B204F0B4FA0DE0E74800782728BA
:1002E00003DB002004F0ACFA05E0E3490978491C7F
:1002F000C8B204F0A5FA0221E04805F067F8012829
:100300007ED1DD4800780F287BDCDD48DA490978AA
:1003100000EBC1004068C0F34030A8B1D748C16CC1
:10032000D748D54A127850F83200C0F30B0081420A
:100330005CD1D349D04A127801EBC201081D49684B
:1003400021F40051016051E0CC48C06C81B2CA4830
:10035000007800EB8002CB4800EB8202CA48C64B13
:100360001B7830F8130022F81010C749C24A1278DF
:1003700001EB42000188491C0180C348BE4909784D
:1003800030F811000A2805D10021BF48BA4A127876
:1003900020F812100021BD4A11605160002413E0C2
:1003A000B548007800EB8001B64800EB810030F8DA
:1003B0001400B64B1A685B68801843F10001B34A19
:1003C00010605160601CC4B20A2CE9DBAC48AA4939
:1003D000097800EBC1060A220023AC490868496885
:1003E00006F0F0FE316860F30B013160A848A249C5
:1003F000097800EBC1004068C0F34030C0B101E0B3
:100400006AE16CE09D48C06CA1499B4A127851F8A2
:100410003210C1F30B01884260D19D49964A12788F
:1004200001EBC201081D496821F40051016055E04B
:100430009248C06C82B29048007800EB80009549E9
:1004400001EB8000904940398B4B1B7831F8131039
:1004500020F811208C494039874A127801EB42007C
:100460000188491C0180884840388349097830F860
:1004700011000A2806D10020834940397E4A1278AB
:1004800021F812000021814A11605160002413E01C
:100490007948007800EB80007E4901EB800030F85D
:1004A00014007A4A13685268C01842F10001774A72
:1004B00010605160601CC4B20A2CE9DB74486E49BC
:1004C000097800EBC1060A220023704908684968D0
:1004D00006F078FE316860F30B013160012504F00D
:1004E000DFFB00287ED064480078282871DB624852
:1004F000007837286DDC604800781838604901EBD7
:10050000C0004068C0F34030B0B15C48C26C5A488B
:100510000078183851F83000C0F30B00824220D127
:10052000554909781839564A02EBC101081D496836
:1005300021F40051016014E04F4909781839504AFC
:1005400002EBC1004D49CB6C4B490978183952F880
:100550003110C1F30B0119444A08016862F30B0121
:100560000160454800781838494901EBC0004068EF
:10057000C0F34030B0B14148C16C3F4800781838F2
:10058000434A52F83000C0F30B00814220D13A496F
:100590000978183902EBC101081D496821F400519E
:1005A000016015E0344909781839394A02EBC10075
:1005B0003249CA6C304909781839354B53F8311033
:1005C000C1F30B0111444A08016862F30B01016099
:1005D000012529480078382830DB2748007847284B
:1005E0002CDC00E02AE0244909782839284A02EB6B
:1005F000C10021490978283952F83110C1F30B3173
:100600001E4AD26C11444A08016862F31731016036
:100610001949097828391A4A02EBC10016490978A4
:10062000283952F83110C1F30B31144AD26C1144FD
:100630004A08016862F31731016001250E4800780D
:10064000182845DB0C480078272841DC0A4909783E
:1006500018390F4A02EBC10007490978183952F8D6
:100660003110C1F30B31054AD26C15E000E400E013
:1006700018ED00E08096980004040020002001405E
:10068000EC0700208C0B00204C0E0020680400209A
:10069000EC0600200C09002011444A08016862F3AE
:1006A00017310160FE4909781839FE4A02EBC10092
:1006B000FB490978183952F83110C1F30B31FA4A65
:1006C000D26C11444A08016862F3173101600125B8
:1006D0000221F54804F083FE0221F44804F076FE7E
:1006E000012815D1EE48007810280DDBEC48007881
:1006F000172809DCED484C300168E94800781038CB
:10070000EB4A42F8201001250221E84804F067FE78
:1007100004F0C6FA60B1D5B1E1480078401CE04968
:10072000087008460078482811DB002008700EE0A9
:100730006DB1DB480078401CD94908700846007844
:10074000282804DB002008700A20FFF79DFD70BDFB
:1007500000B58DB00121084605F059FB02A805F04F
:10076000A0FF0020ADF80800ADF80A0041F26700D4
:1007700003900020ADF8100002A94FF0804005F072
:100780005CFF5021880606F0B1FC01220421080715
:1007900006F04AFA0121880706F03FF94FF0804041
:1007A000008B40F4E0404FF080410883012188072E
:1007B00005F0CCFF01211220FFF756FD012108466C
:1007C00005F0DCFA00200B900C9003200B908DF8C4
:1007D00030000BA9B74805F033F80121080205F0F5
:1007E00027FB0121480205F023FB05A804F010FCBB
:1007F00000208DF8190009904FF0C06008904FF06C
:100800008050079001208DF82800002005908DF879
:10081000180005A9A44804F0D6FB05A9A34804F0D4
:10082000D2FB0723012200219F4804F052FC07233A
:10083000012211469D4804F04CFC12208DF8040062
:1008400001208DF8050000208DF8060001208DF8AC
:10085000070001A804F041FB00209149087003F053
:10086000EFFF122003F0C0FC012240F205218E4868
:1008700004F090FD012240F205218C4804F08AFD2D
:100880000121894804F0E5FB0121884804F0E1FBDF
:100890000DB000BD1220002817DB00F01F0201215F
:1008A0009140854A430942F8231000BF00BF00BFB2
:1008B000BFF34F8F00BF00BF00BF00BF00BF00BF2E
:1008C000BFF36F8F00BF00BF00BF00BF704710B500
:1008D000122003F089FC10BD00B585B0012188030A
:1008E00005F0A6FA00208DF8100040F2E310039006
:1008F00000208DF8130003208DF8110003A96F4824
:1009000004F09EFF0021012005F0B1FD0121084601
:1009100005F0ADFD0521012005F0A9FD062101200E
:1009200005F0A5FD0721012005F0A1FD082101200A
:1009300005F09DFD04F076FE40F2E31001900020EA
:100940008DF8080010208DF8090001208DF80A00AC
:1009500001A804F075FE06208DF8000000208DF837
:1009600001008DF8020001208DF80300684604F0B4
:10097000B4FA07208DF8000000208DF801008DF8F2
:10098000020001208DF80300684604F0A6FA172043
:100990008DF8000000208DF801008DF80200012084
:1009A0008DF80300684604F098FA012004F0B9FEBF
:1009B000022004F0B6FE202004F0B3FE402004F034
:1009C000B0FE802004F0ADFE4FF4807004F0A9FE6C
:1009D00005B000BD10B539481030006800F00100C6
:1009E000F0B93748007801281AD035480078042833
:1009F00016D033480078052812D0002031490870FD
:100A000002202F4908703048007820F00100401C77
:100A10002D4908700846007820F00200801C0870FC
:100A2000012004F07EFE10BD10B50121022005F06A
:100A3000EEF942F60410254908802820091D0860B7
:100A400000202249091F0860012020491C39088024
:100A50001E482838008840F001001C4928390880C9
:100A60001D2003F0C1FB10BD10B50121202005F0B1
:100A7000CEF942F60410164908802820091D0860A6
:100A800000201349091F0860012011491C39088002
:100A90000F482838008840F001000D49283919E036
:100AA00004040020EC070020002001400021014048
:100AB000EC0800200000024080E100E00004024059
:100AC0003D040020410400200504002028040040CB
:100AD000281400400880372003F086FB10BD10B5B5
:100AE0000121102005F093F945F20820FC49088502
:100AF000C820C8620020486201208881084600881A
:100B000040F001000880362003F06EFB0122114600
:100B1000F34806F033FA10BD10B5F248006800F053
:100B20000200F0B9F048007801281AD0EE480078A9
:100B3000042816D0EC480078052812D00020EB4994
:100B400008700220E8490870E948007820F00100A8
:100B5000401CE74908700846007820F00200801C1D
:100B60000870022004F0DDFD10BD2DE9F0470746B6
:100B70000C464FF00009C846002504F091F808B172
:100B80001F2605E00F260F2C02DD0020BDE8F087B0
:100B9000D84800EB072000EBC4004068C0F34018C1
:100BA000B8F1000F2AD0002525E0A5420DDCD14880
:100BB00000EB0720611B00EBC1004068C0F3001090
:100BC00098B1601B00F0FF0917E0CA4800EB07204E
:100BD000291B711A00EBC1004068C0F3001020B15E
:100BE000281B301A00F0FF0907E0B54201D14FF091
:100BF0000008681CC5B2B542D7DD00BFB8F1000FD0
:100C000007D1B44202DB4FF0000902E0601C00F0A3
:100C1000FF094846BAE710B5B748006800F480708D
:100C200010B3B6480078052814D0B44800780428DA
:100C300010D0B248007801280CD0B048007848B1F4
:100C40000020AE490870AE4801780020FFF78DFF04
:100C5000AB490870A9480078042801D1FFF7E4FEE9
:100C60004FF4807004F05DFDA348006800F0400080
:100C700008B39D480078052814D09B4800780428C4
:100C800010D09948007801280CD09748007848B1D6
:100C90000020954908709B4801780120FFF765FF07
:100CA0009849087090480078042801D1FFF7DCFECD
:100CB000402004F036FD9048006800F02000E8B3C2
:100CC00091480078401E8E4908709048007860B9BD
:100CD0008748007820F00100401C854908700846CC
:100CE000007820F00200801C08704FF400717D48ED
:100CF000103804F023FE7F488149097800EBC100D9
:100D00004068C0F3C02028B14FF400617548103826
:100D100004F014FE77487A49097800EBC100406876
:100D2000C0F3003028B14FF480616E48103804F0F1
:100D300005FE0121764805F009FD00E006E00021EE
:100D4000734805F0C3FC202004F0EBFC6A480068FF
:100D500000F08000F0B36C484078401E694908708C
:100D60006A48007801280CD16148007820F0010021
:100D7000401C5F4908700846007820F00200801C83
:100D800008700421634804F0D9FD63485D4909787F
:100D900000EBC1004068C0F3C02018B108215D48D5
:100DA00004F0CCFD5C485749097800EBC10040686D
:100DB000C0F3003020B14FF48051564804F0BEFD1E
:100DC0000121564805F0C2FC0021544805F07EFC84
:100DD000802000E001E004F0A4FC4548007820F009
:100DE0000100401C424908700846007820F00200CB
:100DF000801C087010BD10B50446FFF74BFD03F0D2
:100E00004FFFB8B94649097861434FF6FF7202EACD
:100E100041204FF48072374903F051FE4049097870
:100E200061434FF4807202EB412188B23A4903F0EA
:100E300046FE14E004F120014FF6FF7202EA412061
:100E40004FF480722B4903F03AFE04F120014FF475
:100E5000807202EB412188B22F4903F030FEFFF788
:100E600077FC002010BD70B50546FFF713FD03F0B9
:100E700017FFB8B92A49097869434FF6FF7202EAA9
:100E800041204FF480721B4903F079FE2449097810
:100E900069434FF4807202EB412188B21E4903F08E
:100EA0006EFE14E005F120014FF6FF7202EA4120C8
:100EB0004FF480720F4903F062FE05F120014FF4F8
:100EC000807202EB412188B2134903F058FE1548A5
:100ED0000078C0F3800000287ED0002494E0000059
:100EE00000100040100402403E0400204204002094
:100EF00005040020EC060020143C01403D040020C5
:100F0000290400202A04002058040020280400207E
:100F10000020004000000240EC07002000040140D7
:100F2000700400204C040020FE4800EBC400406820
:100F300020F4005000F50050FA4901EBC40148606C
:100F4000F84800EBC400406820F4804000F5804081
:100F5000F44901EBC4014860F34800EBC400406869
:100F600020F4005000F50050EF4901EBC401486047
:100F7000ED4800EBC400406820F4804000F580405C
:100F8000E94901EBC4014860E64904F1100001EBB6
:100F9000C000406820F4005000F500500A4604F1FB
:100FA000100102EBC1014860114604F1100001EB91
:100FB000C000406820F4804000F5804004F110013A
:100FC00002EBC1014860D84804F1100100EBC100F8
:100FD000406820F4005000E018E000F50050D249CD
:100FE00004F1100201EBC2014860CF48114600EB4A
:100FF000C100406820F4804000F58040CA4901EB00
:10100000C2014860601CC4B2102C8DDB0220C749AD
:101010000870C7490870FFF79BFB70BD30B50246EA
:101020000020002400EE104A0023BE4C04EB0224F2
:1010300004EBC1046468C4F380243CB3B94C04EBF2
:10104000022454F83140C4F30B3440F2FF3594FBD2
:10105000F5F4E3B2032B00DD0323B64C54F8234030
:1010600000EE904AF8EE600ADFEDB31A81EEA01AA6
:10107000B24C54F8234000EE904AF8EE600A61EE5C
:10108000200AFCEEE00AB0EE600A08E0A54C04EB92
:10109000022454F83140C4F30B3400EE104AA14C42
:1010A00004EB022404EBC1046468C4F380148CB123
:1010B000F8EE400A9FEDA21A20EE811ADFED9E1A8B
:1010C000C1EE210AB2EE001A70EE810AFCEEE00ACF
:1010D00010EE900A934C04EB022404EBC104646804
:1010E000C4F3C0148CB1F8EE400A9FED961A60EE7E
:1010F000810ADFED911A80EEA11ADFED930A71EEFD
:10110000200AFCEEE00A10EE900A864C04EB022462
:1011100004EBC1046468C4F300248CB1F8EE400A07
:101120009FED8A1A20EE811ADFED831AC1EE210AA3
:101130009FED871A70EE810AFCEEE00A10EE900A2D
:10114000784C04EB022404EBC1046468C4F340242B
:101150008CB1F8EE400A9FED7F1A20EE811ADFED88
:10116000761AC1EE210A9FED7C1A70EE810AFCEE20
:10117000E00A10EE900A30BD70B502460020002350
:101180000024684D05EB022555F83150C5F3C065C4
:101190003DB3644D05EB022555F83150C5F30B0501
:1011A00040F2FF3695FBF6F5ECB2032C00DD03248C
:1011B000604D55F8245000EE105AB8EE400A9FEDED
:1011C0005E1AC1EE000A5D4D55F8245000EE105A2B
:1011D000B8EE400A20EE800ABCEEC00A10EE103ACB
:1011E00006E0504D05EB022555F83150C5F30B03D1
:1011F000B3F5805F01D340F6FF734A4D05EB02253E
:1012000055F83150C5F380654DB31846454D05EB93
:10121000022555F83150C5F3006505B34F4D95EDE6
:10122000000AF2EE080A60EE200A00EE100AB8EE9C
:10123000400A80EE201ABCEEC10A10EE100A95EDAD
:10124000000AF2EE080A60EE200A00EE100AB8EE7C
:10125000400A20EE800ABCEEC00A10EE100A314DA2
:1012600005EB022555F83150C5F3007505B300EEC6
:10127000103AB8EE400A394DD5ED000A80EE201A3A
:10128000BCEEC10A10EE100A264D05EB022555F8FA
:101290003150C5F300655DB1314D2D680C26B5FBAD
:1012A000F6F5B0FBF5F02E4D2D68B5FBF6F568436D
:1012B0001C4D05EB022555F83150C5F340751DB3A3
:1012C00000EE103AB8EE400A244DD5ED000A80EE4B
:1012D000201ABCEEC10A10EE100A124D05EB0225D1
:1012E00055F83150C5F300655DB11D4D2D680C26D4
:1012F000B5FBF6F5B0FBF5F0194D2D68B5FBF6F52D
:101300006843174D2D682844064D05EB022555F816
:101310003150C5F380752DB300EE103AB8EE400A97
:101320000E4D20E0EC060020EC0700203D040020DC
:101330003E0400200804002000F07F45EC08002057
:101340000000E04200008C440000A04200002F4654
:101350000000484400C0DA470000FA45600400205D
:101360005C0400201FE0D5ED000A80EE201ABCEEE0
:10137000C10A10EE100AFE4D05EB022555F831505A
:10138000C5F300655DB1FB4D2D680C26B5FBF6F588
:10139000B0FBF5F0F74D2D68B5FBF6F56843F54D5C
:1013A0002D6800EB4500F24D05EB022555F8315054
:1013B000ED0F2DB300EE103AB8EE400AEE4DD5ED2C
:1013C000000A80EE201ABCEEC10A10EE100AE84DA9
:1013D00005EB022555F83150C5F300655DB1E54DCB
:1013E0002D680C26B5FBF6F5B0FBF5F0E14D2D6848
:1013F000B5FBF6F56843DF4D2D6805EB4505284440
:10140000DB4D05EB022505EBC1056D6805F0010517
:1014100025B300EE103AB8EE400AD74DD5ED000ADC
:1014200080EE201ABCEEC10A10EE100AD04D05EB7A
:10143000022555F83150C5F300655DB1CD4D2D68DD
:101440000C26B5FBF6F5B0FBF5F0CA4D2D68B5FBE3
:10145000F6F56843C74D2D6800EB850070BD70B58B
:101460002DED0A8B00244FF6FE70C4490880C44855
:1014700001780020FFF7D2FD0446C248006900EE63
:10148000100AB8EE400AF0EE0C0A60EE200ABE48E0
:10149000006900EE100AB8EE400A80EE801AB6EE3F
:1014A000000A31EE000ADFEDB90A20EE200ABCEE98
:1014B000C00A10EE100AB14918310880AC48B04992
:1014C000097850F83100C0F34060002862D0AC4881
:1014D00001780020FFF750FE0546AD48007818B1AE
:1014E000AB48007806284AD1AA480068A8421FD90C
:1014F000A8480068401B00EE100AF8EE400A00EE13
:10150000104AB8EE400A80EE808AA348006800EED8
:10151000100AB8EE400A28EE000ABCEEC00A10EE2F
:10152000100A9C4A1268101A81B2002003F0E8FFEA
:1015300098480068854237D996480068281A00EE16
:10154000100AF8EE400A00EE104AB8EE400A80EEAB
:10155000801AB0EE418A9048006800EE100AB8EE9A
:10156000400A28EE000ABCEEC00A10EE100A894AB2
:101570001268104481B2002003F0C2FF14E08048DA
:1015800001780020FFF7F8FD86B23146002003F015
:10159000B7FF09E07A4801780020FFF7EDFD86B239
:1015A0003146002003F0ACFF7148754A127850F8BC
:1015B0003200C0F30B308110002002F0BAFF7648F1
:1015C000006806F004F941EC1A0B204606F0FFF81B
:1015D00041EC1C0B53EC1C2B9FED700B51EC100BD2
:1015E00005F070FF41EC1B0B53EC1A2B06F002F9CF
:1015F00041EC190B06F0BEF840F2FF310E1A3146ED
:10160000012002F096FF6248007818B16048007827
:10161000062804D160480068401C5F4908605E48A5
:101620000068A0427ED3564801780020FFF7A4FD51
:101630005849086056480078062803D15948007870
:10164000534908704A484E49097800EBC100406888
:10165000C0F3400030B14E48007852490870022073
:101660004B49087042484649097800EBC100406880
:10167000C0F3C00080B14FF480714B4804F042F9D0
:1016800050B943480078042806D0414800784549BD
:10169000087004203E49087035483949097800EB44
:1016A000C1004068C0F3800098B14FF480713E489B
:1016B00004F028F901280CD135480078052808D015
:1016C0003348007837490870052031490870FFF722
:1016D000ABF927482A49097800EBC1004068C0F3FC
:1016E000400070B922482649097800EBC1004068E3
:1016F000C0F3C00028B91E482149097800EBC10099
:1017000040680020244908602148007850B91C48EE
:1017100001780020FFF729FA194908704FF4007189
:10172000214800E046E004F009F91148144909781D
:1017300000EBC1004068C0F3C02020B14FF400614D
:10174000194804F0FBF80A480D49097800EBC1007C
:101750004068C0F3003020B14FF48061124804F0BB
:10176000EDF80121114804F0F1FF00210F481FE0BE
:10177000EC0600205C0400206004002010080040FB
:1017800029040020EC080020080400200010244652
:101790003D0400205004002034040020000000001C
:1017A00000F88F4041040020000402400020004067
:1017B00004F08CFFFE48007801283ED1FD480078F7
:1017C000401EFD490978884237D0FA480078401E0B
:1017D000F9490870084601780020FFF7CDFC86B271
:1017E0003146002003F08CFE4FF40071F34804F002
:1017F000A5F8F348F049097800EBC1004068C0F350
:10180000C02020B14FF40061EC4804F097F8EC4898
:10181000E949097800EBC1004068C0F3003020B10D
:101820004FF48061E54804F089F80121E54804F0AF
:101830008DFF0021E34804F049FFDD4800780328CC
:1018400012D1DC480078401EDB4908700846017858
:101850000020FFF791FC86B23146002003F050FED5
:10186000D9480078D2490870D848007860B9D8487B
:10187000007820F00100401CD54908700846007827
:1018800020F00200801C0870BDEC0A8B70BD70B5A2
:101890002DED0E8B00244FF6FE70CE490880CE4809
:1018A00001780120FFF7BAFB0446CC49486905F0EE
:1018B0008EFF41EC1C0BCA49486905F088FF41ECDA
:1018C0001E0B9FEDC80B53EC102B05F093FF41EC62
:1018D0001D0B53EC1C2B05F0F5FD41EC1B0B9FED94
:1018E000C30B53EC102B05F045FD41EC1A0B9FED9B
:1018F000C10B53EC102B05F07DFF41EC190B05F0EB
:1019000039FFB44918310880BC48B349097850F808
:101910003100C0F34060002862D0AF480178012058
:10192000FFF72AFC0546B648007818B1B44800789D
:1019300006284AD1B3480068A8421FD9B1480068B8
:10194000401B00EE100AF8EE400A00EE104AB8EE16
:10195000400A80EE808AAC48006800EE100AB8EEBB
:10196000400A28EE000ABCEEC00A10EE100AA54A92
:101970001268101A81B2002003F0CFFDA148006860
:10198000854237D99F480068281A00EE100AF8EE01
:10199000400A00EE104AB8EE400A80EE801AB0EE1F
:1019A000418A9948006800EE100AB8EE400A28EE15
:1019B000000ABCEEC00A10EE100A924A12681044E7
:1019C00081B2002003F0A9FD14E0834801780120D2
:1019D000FFF7D2FB86B23146002003F09EFD09E0FE
:1019E0007D4801780120FFF7C7FB86B23146002011
:1019F00003F093FD8148784A127850F83200C0F322
:101A00000B308110022002F094FD7F48006805F041
:101A1000DEFE41EC1A0B204605F0D9FE41EC1C0B12
:101A200053EC1C2B1FEDA30B51EC100B05F04AFDE2
:101A300041EC1B0B53EC1A2B05F0DCFE41EC190BAF
:101A400005F098FE40F2FF310E1A3146032002F0F5
:101A500070FD6B48007818B169480078062804D1F9
:101A600069480068401C6849086067480068A042EF
:101A70007ED3594801780120FFF77EFB6149086059
:101A80005F480078062803D1604800785C490870F8
:101A90005A485149097800EBC1004068C0F3400042
:101AA00030B15748007859490870022054490870ED
:101AB00052484949097800EBC1004068C0F3C000B2
:101AC00078B140213D4803F01DFF50B94C480078E3
:101AD000042806D04A4800784C4908700420484938
:101AE000087046483C49097800EBC1004068C0F3E3
:101AF000800090B14021314803F004FF01280CD14F
:101B00003F480078052808D03D4800783F490870D4
:101B100005203B490870FEF7A7FF38482E49097891
:101B200000EBC1004068C0F3400070B933482A4957
:101B3000097800EBC1004068C0F3C00028B92F4805
:101B40002549097800EBC100406800202E49086053
:101B50002B48007860B9204801780120FFF705F88C
:101B60001D49087004212A4803F0E8FE234800E0DC
:101B700056E01949097800EBC1004068C0F3C02065
:101B800018B10821224803F0D9FE1C4812490978EF
:101B900000EBC1004068C0F3003020B14FF4805129
:101BA0001B4803F0CBFE01211A4804F0CFFD33E0BF
:101BB0003D040020580400202904002000040240B5
:101BC000EC060020002000404104002028040020F2
:101BD00005040020100C00402A0400200804002006
:101BE000EC0800200000000000000C400000000095
:101BF0000000E03F000000000082C440EC0700202D
:101C00003E04002054040020380400204204002038
:101C100000000240000401400021FC4804F056FD91
:101C2000FB48007801283CD1FA484078401EFA4928
:101C30000978884235D0F7484078401EF649087048
:101C4000084601780120FFF797FA86B23146002056
:101C500003F063FC0421F14803F070FEF048EE4904
:101C6000097800EBC1004068C0F3C02018B108211A
:101C7000EA4803F063FEEA48E749097800EBC1004F
:101C80004068C0F3003020B14FF48051E34803F0C6
:101C900055FE0121DD4804F059FD0021DB4804F028
:101CA00015FDDB480078032812D1DA484078401E41
:101CB000D9490870084601780120FFF75DFA86B21D
:101CC0003146002003F029FCD6480078D04908703E
:101CD000D548007801280CD1D448007820F00100C4
:101CE000401CD24908700846007820F00200801C91
:101CF0000870BDEC0E8B70BD1FB50121042004F0EF
:101D000086F801A804F0CDFC42F60410ADF80400FA
:101D1000012002900020ADF80C00ADF8060001A9EA
:101D2000C34804F08AFC0121C14804F0F1FC012100
:101D3000BF4804F00BFD0121082004F068F801A958
:101D4000BC4804F07AFC0121BA4804F0E1FC01210E
:101D5000B84804F0FBFC01221146B54805F00EF925
:101D600001221146B34805F009F91E208DF8000044
:101D700000208DF801008DF8020001208DF803008D
:101D8000684603F0AAF832208DF8000000208DF894
:101D900001008DF8020001208DF80300684603F071
:101DA0009CF800211E20FEF75FFA00213220FEF78A
:101DB0005BFAA148A14908600820A1490860A1492F
:101DC0000860A1490860A14908600121400104F0B0
:101DD0001EF801A804F065FCD220ADF804004FF411
:101DE000A07002900020ADF80C00ADF8060001A92B
:101DF000974804F022FC0021954804F0A7FC01223A
:101E00001146934805F0BAF82D2002F0EDF90121B2
:101E1000022004F00DF801A804F043FCD220ADF834
:101E200004004FF4207002900020ADF80C00ADF8D3
:101E3000060001A9754804F000FC0021734804F075
:101E400085FC01221146714805F098F82C2002F01B
:101E5000CBF91FBD10B501216C4805F0A6F8A0B163
:101E600000216A4804F072FC04216C4803F064FD10
:101E700008216A4803F060FD4FF48051674803F081
:101E80005BFD0121614805F0A1F810BD10B50121ED
:101E90006F4805F08AF8B0B100216D4804F056FC97
:101EA0004FF400716B4803F047FD4FF4006169483F
:101EB00003F042FD4FF48061664803F03DFD0121CF
:101EC000634805F083F810BD10B54FF6FE70624907
:101ED000088062480078042804D181015D4803F03D
:101EE00011FDD8B15D480078042817D18101594807
:101EF00003F008FD012811D1002058490870584806
:101F000001780020FEF731FE55490870524810381C
:101F1000008820F001005049103908804F480078AF
:101F2000052806D14FF480714A4803F0EBFC0128E4
:101F30001BD04A480078052817D14FF480714548D6
:101F400003F0E0FC88B90020444908704448017857
:101F50000020FEF70AFE424908703F48103800880A
:101F600020F001003C491039088010BD10B54FF633
:101F7000FE703C49088026480078042804D140219E
:101F8000344803F0BFFCD8B121480078042817D1A9
:101F90004021304803F0B6FC012811D100201C4933
:101FA00008701D4801780120FEF7DFFD1A4908700E
:101FB0002C481038008820F001002A491039088088
:101FC00013480078052805D14021224803F09AFCE7
:101FD00001281AD00E480078052816D140211D4846
:101FE00003F090FC88B90020094908700A4801787C
:101FF0000120FEF7BAFD084908701A481038008819
:1020000020F0010017491039088010BD000401407C
:102010003E040020580400202A0400200000024052
:10202000EC070020420400202804002005040020C2
:1020300000080040000C00400007FA050CED00E02D
:1020400034040020380400202C0400203004002038
:102050000020004000040240100400403D04002025
:10206000290400201014004010B586B0044601A8D1
:1020700003F0B3FD42F210710298B0FBF1F060433F
:10208000059002E00598401E059005980028F9D1BA
:1020900006B010BD1CB54FF6FE70FE49088202F076
:1020A0003FFBCDE90001FC4800781E283ADAFB48E6
:1020B00000781E2836DA9DF8000000F0010020B1FB
:1020C0009DF80000C0F34000E0B99DF8000000F06A
:1020D000010028B9F0480078401CEF49087002E080
:1020E0000020ED4908709DF80000C0F3400028B9B9
:1020F000EA480078401CE9490870D7E00020E74929
:102100000870D3E00020E4490870E4490870002119
:10211000E04804F0DBFADF48008820F00100DD49E8
:102120000880C3E0DC4800781E2803D0DB48007834
:102130001E28E2D1002002F0ADF84FF4FA70FFF74C
:1021400093FF4FF6FF7002F0A5F84FF4FA70FFF717
:102150008BFF002002F09EF84FF4FA70FFF784FF27
:102160004FF6FF7002F096F84FF4FA70FFF77CFF1D
:10217000002002F08FF84FF4FA70FFF775FF4FF66A
:10218000FF7002F087F80021C24804F09FFAC148AE
:10219000008820F00100BF490880BF4800781E2851
:1021A00030D10020BE49C8700871487108464068A7
:1021B00020F08000803048600846006820F0806091
:1021C00000F180600860002413E0B54800EBC40112
:1021D00002461068526808604A60B14904F1100074
:1021E00001EBC0000A461168526801604260601C41
:1021F000C4B2102CE9DB0220AA4908700020AA49C9
:10220000087038E0A54800781E2834D10021A44881
:1022100080F8031180F8041180F80511D0F804014A
:1022200020F0800080309E49C1F804010846D0F8B3
:10223000000120F0806000F18060C1F800010024FE
:1022400011E09A4800EBC401026840680A604860E7
:10225000964804F1100100EBC101026840680A6071
:102260004860601CC4B2102CEBDB0220904908705F
:10227000002090490870002087490870874908703D
:102280008D480078062803D08B480078042802D1B6
:1022900000208949087088480078072803D08648BC
:1022A0000078052802D10120834908701CBD1CB5A7
:1022B0000121022003F062FD0020009001904FF404
:1022C0006060009001208DF8040000208DF8060069
:1022D0008DF8070003208DF805006946774803F064
:1022E000AFFA4FF40071754803F026FB4FF400611C
:1022F000724803F021FB4FF48061704803F01CFB2F
:102300000121084603F03AFD00200090019041F2BF
:102310000C00009001208DF8040000208DF80600CC
:102320008DF8070003208DF805006946644803F026
:1023300087FA0421624803F0FFFA0821604803F09D
:10234000FBFA4FF480515E4803F0F6FA1CBD1CB551
:102350000121084603F012FDC020009003208DF8F3
:10236000050001208DF8040000208DF80600694664
:10237000534803F065FA1CBD00B587B003A803F00D
:102380006BF80121084603F0F9FC3020019003208E
:102390008DF8080001A94A4803F052FA01214807C4
:1023A00003F035FD002003900220069000200490E9
:1023B00003F030F803A9002003F037F803A9102038
:1023C00003F033F80121002003F04CF80121102024
:1023D00003F048F80021084603F092F8002108466F
:1023E00003F09BF807B000BD2DE9FC410446002630
:1023F000002702F055FC08B11F2500E00F252E48EC
:10240000007810B92848067800272B480078012862
:1024100002D128480678012727480078022802D1EF
:1024200028480678002724480078032802D1254848
:102430000678012720480078042802D12148067830
:1024400000271D480078052802D11E48067801277C
:1024500019480078062802D11A480678002716483D
:102460000078072802D11748067801270C4800EBAE
:10247000072000EBC60108684968CDE900016078D3
:10248000C0F30010A0BB009820F0805000F18050F5
:10249000009019E000100040820400208304002016
:1024A000EC0600203D04002029040020EC07002059
:1024B0003E0400202A0400202804002000040240DA
:1024C000000002403C040020009820F000500090E2
:1024D000009820F080400090009820F0004000908C
:1024E000019820F001000190009820F08060009099
:1024F0006078C0F34010C8B9009820F08050009078
:10250000009820F0005000F100500090009820F05A
:1025100080400090009820F000400090019820F04A
:1025200001000190009820F0806000906078C0F376
:102530008010C8B9009820F080500090009820F0DA
:1025400000500090009820F0804000F18040009002
:10255000009820F000400090019820F001000190C8
:10256000009820F0806000906078C009C8B9009899
:1025700020F080500090009820F0005000900098CB
:1025800020F080400090009820F0004000F10040D2
:102590000090019820F001000190009820F08060E8
:1025A0000090A07800F00100C0B9009820F08050A1
:1025B0000090009820F000500090009820F080409B
:1025C0000090009820F000400090019820F0010059
:1025D000401C0190009820F080600090607800F02E
:1025E0000100C8B9009820F080500090009820F0B9
:1025F00000500090009820F080400090009820F05B
:1026000000400090019820F001000190009820F017
:10261000806000F180600090E078C0F3001028B97D
:10262000019820F4006000F500600190E078C0F3AC
:10263000401018B9019820F400600190E078C0F3D0
:10264000801028B9019820F4805000F58050019046
:10265000E078C00918B9019820F4805001902078E2
:10266000C0F3001028B9009820F0807000F180704D
:1026700000902078C0F3401018B9009820F08070C6
:1026800000902078C0F3801028B9009820F00070E6
:1026900000F1007000902078C00918B9009820F06F
:1026A000007000906078C0F3800028B9009820F096
:1026B000006000F1006000906078C0F3C00018B9BD
:1026C000009820F000600090A078C0F34000E8BBC4
:1026D000019820F00200801C0190019820F0080071
:1026E0000190019820F004000190FD48007818B195
:1026F000FB480078022806D1FA480078052802D164
:102700000220F8490870F6480078012803D0F44800
:102710000078032806D1F4480078052802D1022069
:10272000F1490870EE48007818B1ED4800780228A9
:1027300006D1EC480078042802D10220E94908704B
:10274000E7480078012805D0E54800E009E0007876
:10275000032806D1E4480078042802D10220E24987
:102760000870A078C0F3800018B9019820F002002A
:102770000190A078C0F3C00058BB019820F004007D
:10278000001D0190019820F002000190019820F0B6
:1027900008000190D248007818B1D148007802288A
:1027A00007D1D0480078042803D1D0480078CD491B
:1027B0000870CB480078012803D0C9480078032866
:1027C00007D1C9480078042803D1C9480078C64910
:1027D0000870A078C0F3001010BB019820F004002E
:1027E0000190BF48007818B1BD480078022807D191
:1027F000BC480078052803D1BC480078B949087066
:10280000B7480078012803D0B5480078032807D1DD
:10281000B5480078052803D1B5480078B24908705A
:10282000A078C0F3401058BB019820F00800083091
:102830000190019820F002000190019820F004001E
:102840000190A748007818B1A5480078022807D160
:10285000A4480078052803D1A4480078A14908704D
:102860009F480078012803D09D480078032807D1AD
:102870009D480078052803D19D4800789A49087042
:10288000A078C0F3801010BB019820F008000190E0
:102890009348007818B192480078022807D19148EF
:1028A0000078042803D1914800788E4908708C483C
:1028B0000078012803D08A480078032807D18A4885
:1028C0000078042803D18A48007887490870A078E6
:1028D000C00940B9019820F0100010300190019813
:1028E00020F020000190A07900F0010018B90198B3
:1028F00020F010000190A079C0F3400040B9019889
:1029000020F0200020300190019820F0100001906C
:10291000A079C0F3800018B9019820F02000019040
:10292000207900F0010028B9019820F4806000F5BA
:10293000806001902079C0F3400018B9019820F41C
:1029400080600190A079C0F3C00080B9019820F0A8
:10295000400040300190019820F0800001900198E3
:1029600020F480700190019820F400700190A0790B
:10297000C0F3001080B9019820F040000190019848
:1029800020F0800080300190019820F48070019048
:10299000019820F400700190A079C0F3401088B92C
:1029A000019820F040000190019820F080000190F3
:1029B000019820F4807000F580700190019820F457
:1029C00000700190A079C0F3801088B9019820F0C0
:1029D00040000190019820F080000190019820F4BF
:1029E00080700190019820F4007000F50070019053
:1029F000207800F0010088BBFEF771F838480078B5
:102A0000062814D13B480078FEF72DFA01203A49F8
:102A10000870002032490870324800783349087045
:102A200000203649087002202E49087045E02C48E5
:102A30000078072813D12F480078FEF714FA0120F8
:102A40002D490870264908702748007828490870E1
:102A500000202B4908700220234908702DE02048EF
:102A6000007898B906201E49087000202149087096
:102A70002448007820F00200801C22490870084693
:102A8000007820F00100401C087016E0144800781F
:102A9000012812D10720124908700020154908703A
:102AA0001848007820F00200801C1649087008467B
:102AB000007820F00100401C08702078C0F340002E
:102AC00068B9FEF70CF80648007804281CD10948BC
:102AD0000078FEF790F90020014908704EE04DE0C3
:102AE000280400203D0400203E0400204104002072
:102AF000420400203C040020470400202904002058
:102B00002A04002005040020FC480078052807D18D
:102B1000FB480078FEF76FF90120F84908702DE0B6
:102B2000F648007898B90420F44908700020F44968
:102B30000870F448007820F00200801CF149087009
:102B40000846007820F00100401C087016E0EB48B1
:102B50000078012812D10520E84908700020E849D2
:102B60000870E848007820F00200801CE5490870F1
:102B70000846007820F00100401C08702078C0F35F
:102B8000800000287ED1DD48007828B90220DB498A
:102B900008700120DA490870D8480078012805D16A
:102BA0000320D64908700120D5490870D348007821
:102BB000022803D0D148007803285AD1D0480078A1
:102BC00000282EDDD048008828B9CD480078401E66
:102BD000CB49087012E0CC480088B0F5FA7F0DDBD5
:102BE000C9480088B0F5167F08DD4FF4FA70C64971
:102BF0000880C3480078401EC1490870C248008858
:102C0000401CC1490880BF48007820F00100401CEA
:102C1000BC4908700846007820F00200801C08704B
:102C200027E0B948008810B9B54805700FE0B648EC
:102C30000088B0F5FA7F0ADBB3480088B0F5167F4C
:102C400005DD4FF4FA70B0490880AD480570AE4814
:102C50000088401CAC490880AA48007820F0010098
:102C6000401CA84908700846007820F00200801C2B
:102C70000870A248007804280DD0A04800780528E4
:102C800009D000E07DE09D480078062803D09B48ED
:102C90000078072878D19A480078002828DD9A48DB
:102CA000008828B996480078401E9549087012E0BF
:102CB00095480088B0F5FA7F0DDB93480088B0F5A1
:102CC000167F08DD4FF4FA708F4908808C48007831
:102CD000401E8B4908708C480088401C8A49088037
:102CE0008848007820F00200801C864908704BE07C
:102CF00085480088A8B901F0D3FF70B90F2080493A
:102D0000087082480078012803D102207F490870AA
:102D10002AE001207D49087026E01F2078490870CC
:102D200022E079480088B0F5FA7F1DDB76480088FC
:102D3000B0F5167F18DD4FF4FA707349088001F082
:102D4000AFFF70B90F206E490870704800780128F5
:102D500003D102206D49087006E001206B4908701C
:102D600002E01F206649087067480088401C6649D9
:102D700008806448007820F00200801C61490870D7
:102D800002E00020604908802078C0F3C0000028DD
:102D90007ED15A48007820B9022058490870584816
:102DA000057056480078012804D103205349087063
:102DB0005348057051480078022803D04F480078E6
:102DC00003285CD14E480078A8422EDA504800888B
:102DD00028B94B480078401C4949087012E04C481B
:102DE0000088B0F5FA7F0DDB49480088B0F5167F02
:102DF00008DD4FF4FA704649088041480078401CCD
:102E00003F49087042480088401C414908803D48BD
:102E1000007820F00100401C3A490870084600780C
:102E200020F00200801C087029E03948008818B999
:102E300000203349087010E035480088B0F5FA7F6B
:102E40000BDB33480088B0F5167F06DD4FF4FA70CF
:102E50002F49088000202A4908702D480088401C0E
:102E60002B4908802748007820F00100401C2549A4
:102E700008700846007820F00200801C08701F4887
:102E8000007804280DD01D480078052809D000E0FE
:102E900089E01A480078062803D0184800780728E7
:102EA0002BD117480078A84234DA1948008828B98D
:102EB00013480078401C1249087012E0144800883A
:102EC000B0F5FA7F0DDB12480088B0F5167F08DDFB
:102ED0004FF4FA700E49088009480078401C0849F0
:102EE00008700B480088401C094908800548007894
:102EF00020F00200801C0349087057E028040020DD
:102F00003C040020050400207E0400207004002002
:102F100080040020F8480088A8B901F0C1FE70B90B
:102F20000020F6490870F6480078012803D10220F5
:102F3000F34908702AE00120F149087026E00020DA
:102F4000EE49087022E0EC480088B0F5FA7F1DDBFE
:102F5000E9480088B0F5167F18DD4FF4FA70E649AD
:102F6000088001F09DFE70B90020E4490870E44833
:102F70000078012803D10220E149087006E0012011
:102F8000DF49087002E00020DC490870DA48008858
:102F9000401CD9490880DB48007820F00200801CE2
:102FA000D849087002E00020D34908800120D649A2
:102FB0000870D6480078B8B96079C0F3800028B9A5
:102FC000D348007810B10020D14908702079C0F3AF
:102FD000801048B9CE480078012805D00120CC499E
:102FE00008700020C84908706079C0F34000F8B943
:102FF000C848007801281BD00020C7490870C14884
:10300000007820F00100401CBE4908700846007896
:1030100020F00200801C0870BE480078042803D00D
:10302000BC480078052803D1BC480078B94908702D
:103030002079C0F34010F8B9B948007801281BD0B6
:103040000020B8490870AF48007820F00100401C0B
:10305000AC4908700846007820F00200801C087017
:10306000AF480078042803D0AD480078052803D184
:10307000AD480078AA4908702079C0F30010E8B381
:10308000AA480078D0BB0120A8490870A848007859
:10309000401EA14908709E48007860B999480078A0
:1030A00020F00100401C974908700846007820F085
:1030B0000200801C08704FF400719E4802F03EFC34
:1030C0009D489549097800EBC1004068C0F3C020D5
:1030D00020B14FF40061974802F030FC96488E49C9
:1030E000097800EBC1004068C0F3003020B14FF414
:1030F0008061904802F022FC012100E006E08F4848
:1031000003F024FB00218D4803F0E0FA2079C0F39E
:10311000001010B90020854908706079C0F30010D4
:10312000E8BB83480078401E7B49087078480078E7
:1031300060B97448007820F00100401C71490870A3
:103140000846007820F00200801C08704FF40071DF
:10315000784802F0F3FB78486F49097800EBC1002A
:103160004068C0F3C02020B14FF40061714802F004
:10317000E5FB71486849097800EBC1004068C0F37D
:10318000003020B14FF480616A4802F0D7FB012182
:103190006A4803F0DBFA0021684803F097FAE07808
:1031A000C0F3C000E8B366480078D0BB0120644992
:1031B00008705F484078401E5A49087054480078AB
:1031C00001280CD14F48007820F00100401C4D49E7
:1031D00008700846007820F00200801C0870042166
:1031E000584802F0ABFB54484B49097800EBC1004A
:1031F0004068C0F3C02018B10821524802F09EFB7D
:103200004D484549097800EBC1004068C0F30030E3
:1032100020B14FF480514B4802F090FB01214A4805
:1032200000E005E003F092FA0021474803F04EFA6F
:10323000E078C0F3C00010B9002041490870E07880
:10324000C0F34000E0BB3A484078401E3549087062
:103250002F48007801280CD12A48007820F001007E
:10326000401C284908700846007820F00200801CA5
:1032700008700421334802F061FB34482949097879
:1032800000EBC1004068C0F3C02018B108212D48F0
:1032900002F054FB2D482349097800EBC100406837
:1032A000C0F3003020B14FF48051264802F046FBB5
:1032B0000121254803F04AFA0021234803F006FAC9
:1032C0006079C0F34010A8B912480078012857D09F
:1032D000104800781149087001200E49087009480B
:1032E000007820F00100401C0649087000200649C3
:1032F000087045E02CE00000800400203C04002021
:10330000700400200504002046040020470400202B
:10331000280400203D04002029040020410400204E
:103320003E0400202A0400204204002071040020F2
:103330005804002000040240EC0600200020004059
:10334000720400200000024000040140EC0700204D
:10335000FE480078012813D1FD480078FB49087029
:10336000FC48007820F00100401CFA49087008462B
:10337000007820F00200801C08700020F6490870D8
:10338000E078C0F38000A8B9F4480078012829D07B
:10339000F2480078F24908700120F0490870ED48C1
:1033A000007820F00100401CEA4908700020EA493A
:1033B000087017E0E9480078012813D1E848007840
:1033C000E6490870E348007820F00100401CE1491C
:1033D00008700846007820F00200801C0870002069
:1033E000DD490870607900F00100E0BBDD4800783D
:1033F000401CDC490870084600780A285ED1D34892
:10340000007801285AD0D1480078062811D1D64832
:1034100001780020FDF7B0FED4490860D248017859
:103420000020FDF7A2FBD04908700020D0490860B9
:1034300012E0C6480078052807D0C4480078042860
:1034400003D0C2480078C2490870C74801780020FC
:10345000FDF78BFBC44908700620BC4908704FF487
:103460000071C44800E026E002F068FAC248BE4994
:10347000097800EBC1004068C0F3C02020B14FF4D0
:103480000061BC4802F05AFABB48B749097800EB22
:10349000C1004068C0F3003020B14FF48061B548EE
:1034A00002F04CFA0121B54803F050F90021B3486D
:1034B00003F00CF902E00020AA4908706079C0F31B
:1034C000C000E8BBAE480078401CAD490870084613
:1034D00000780A285CD1A1480078012858D09F487C
:1034E0000078062811D1A74801780120FDF744FE95
:1034F000A5490860A34801780120FDF736FBA149E2
:1035000008700020A149086012E09448007805285E
:1035100007D092480078042803D09048007890495A
:103520000870984801780120FDF71FFB9549087045
:1035300006208A4908700421954802F0FFF900E04E
:1035400023E094488F49097800EBC1004068C0F33C
:10355000C02018B108218E4802F0F0F98D48894941
:10356000097800EBC1004068C0F3003020B14FF48F
:103570008051874802F0E2F90121874803F0E6F81C
:103580000021854803F0A2F802E000207C49087081
:103590008248007880B9784800EB072000EBC6002D
:1035A000DDE90012016042606A48007820F0010005
:1035B000401C6849087002E000207849087001202A
:1035C000BDE8FC81F8B500250026FF208DF800003D
:1035D0008DF801008DF802008DF803005B4800783B
:1035E00018B15A480078062805D19DF8000020F04F
:1035F00004008DF8000055480078012807D0534892
:103600000078042803D051480078052805D19DF89A
:10361000000020F002008DF800004C4800780228DD
:1036200005D19DF8000020F001008DF800004B4806
:10363000007818B149480078062805D19DF80000A7
:1036400020F020008DF8000044480078012807D0C1
:1036500042480078042803D040480078052805D166
:103660009DF8000020F010008DF800003B48007825
:10367000022805D19DF8000020F008008DF8000018
:103680004748007810B93848057800264448007843
:10369000012802D13B4805780126414800780228DC
:1036A00002D14048057800263D480078032802D121
:1036B0003C4805780126304800EB062000EBC504A5
:1036C00020686FEA90609DF8031060F382018DF826
:1036D000031020686FEA10709DF8031060F3041166
:1036E0008DF8031020686FEA50709DF8031060F3A6
:1036F00045118DF8031020686FEA90709DF8031053
:1037000060F386118DF8031020686FEAD0709DF881
:10371000031060F3C7118DF803102079C0439DF8A2
:10372000021060F300018DF80210A0886FEA1030DB
:103730009DF8001060F386118DF80010A0886FEAE4
:10374000D0209DF8001060F3C7112DE03D0400204B
:103750004104002005040020460400203E0400200F
:10376000420400207C040020290400205004002092
:103770003404002000040240EC0600200020004039
:103780007D0400202A040020540400203804002076
:1037900000000240EC070020000401404704002024
:1037A000280400203C0400208DF8001020796FEAE6
:1037B00010109DF8021060F304118DF802102079AA
:1037C0006FEA50109DF8021060F345118DF8021059
:1037D00020686FEAD0609DF8031060F3C3018DF894
:1037E000031020686FEA50609DF8031060F34101F8
:1037F0008DF8031020686FEA10609DF8031060F3E5
:1038000000018DF8031020796FEA90109DF80210E6
:1038100060F386118DF8021020796FEAD0109DF8C0
:10382000021060F3C7118DF80210A0886FEA102013
:103830009DF8011060F300018DF80110A0886FEA77
:1038400050209DF8011060F341018DF80110A0880F
:103850006FEA90209DF8011060F382018DF801104D
:1038600020796FEA50009DF8021060F341018DF855
:10387000021020796FEA90009DF8021060F3820137
:103880008DF8021020796FEAD0009DF8021060F3E5
:10389000C3018DF80210FE48007804280BD0FC48C4
:1038A0000078052807D0FA480078062803D0F848A1
:1038B000007807287AD1FF208DF800008DF80100EC
:1038C0008DF802008DF80300F1480078042803D039
:1038D000EF48007805282AD19DF8000020F010005C
:1038E00010308DF80000EB480068401CE949086082
:1038F0000846006840F2DC51884206D29DF800007C
:1039000020F002008DF8000043E0E248006840F635
:10391000B831884207D29DF8000020F00200801CD8
:103920008DF8000035E00020DA49086031E0D84821
:103930000078062803D0D6480078072829D19DF8BA
:10394000000020F00200801C8DF80000D2480068C2
:10395000401CD14908600846006840F2DC518842AA
:1039600006D29DF8000020F010008DF8000010E055
:10397000C948006840F6B831884207D29DF8000077
:1039800020F0100010308DF8000002E00020C24945
:10399000086001F085F948B9C0480078012806D1CF
:1039A0009DF8000020F040008DF8000005E09DF833
:1039B000000020F080008DF80000684600F00DFD4A
:1039C000B348007818B1B2480078022807D14021E6
:1039D000B34801F0B1FF8021B14801F0AFFFAC481E
:1039E0000078012803D0AA480078032807D1802155
:1039F000AB4801F0A1FF4021A94801F09FFFF8BDAD
:103A000010B5A348007818B9A648007800F056FC15
:103A10009F480078012803D1A348007800F04EFCAD
:103A20009B480078022813D09948007803280FD0CB
:103A30009748007804280BD095480078052807D0CF
:103A400093480078062803D091480078072803D1CE
:103A50009648007800F032FC10BD1FB5FF208DF8AD
:103A600004008DF805008DF806008DF80700802110
:103A70008B4801F063FF4021894801F05FFF8DE032
:103A8000641CB4F5FA6F28D29DF8040020F00400FD
:103A9000001D8DF804009DF8040020F00200801C39
:103AA0008DF804009DF8040020F001008DF804005A
:103AB0009DF8040020F0200020308DF804009DF8CF
:103AC000040020F0100010308DF804009DF8040070
:103AD00020F008008DF8040059E0B4F57A6F28D280
:103AE0009DF8040020F004008DF804009DF8040007
:103AF00020F00200801C8DF804009DF8040020F0E6
:103B00000100401C8DF804009DF8040020F0200006
:103B10008DF804009DF8040020F0100010308DF89E
:103B200004009DF8040020F0080008308DF804001F
:103B30002DE041F27070844228D29DF8040020F0FC
:103B40000400001D8DF804009DF8040020F0020020
:103B50008DF804009DF8040020F00100401C8DF851
:103B600004009DF8040020F0200020308DF80400AF
:103B70009DF8040020F010008DF804009DF804006A
:103B800020F0080008308DF8040000E0002401A8AF
:103B900000F023FC00F0C4FDCDE902019DF80D000A
:103BA000C0F3C00000287FF46BAF00240FE0404852
:103BB00050F824003F4941F82400084650F82400FA
:103BC000642803D240F6FF7041F82400641C082CDE
:103BD000EDD3FCF75FFE202236494FF4484000F059
:103BE0006EFFFCF7B5FDA2E0641CB4F5FA6F28D2B5
:103BF0009DF8040020F00400001D8DF804009DF8DD
:103C0000040020F00200801C8DF804009DF80400E0
:103C100020F001008DF804009DF8040020F0200041
:103C200020308DF804009DF8040020F010001030C2
:103C30008DF804009DF8040020F008008DF80400C1
:103C40006EE0B4F57A6F3DD29DF8040020F00400D8
:103C50008DF804009DF8040020F00200801C8DF80F
:103C600004009DF8040020F00100401C8DF80400C1
:103C70009DF8040020F020008DF804009DF8040059
:103C800020F0100010308DF804009DF8040013E0BF
:103C90002804002074040020780400207004002010
:103CA00000000240290400202A0400203C040020D7
:103CB000EC0800200804002020F0080008308DF8EF
:103CC00004002DE041F27070844228D29DF8040077
:103CD00020F00400001D8DF804009DF8040020F081
:103CE00002008DF804009DF8040020F00100401C43
:103CF0008DF804009DF8040020F0200020308DF89D
:103D000004009DF8040020F010008DF804009DF8D8
:103D1000040020F0080008308DF8040000E00024C2
:103D200001A800F05AFB00F0FBFCCDE902019DF870
:103D30000D00C0F3C00000283FF456AF1FBD8AB08D
:103D40000027BB4600200190FE4908700846007815
:103D500020F00100401C08700846007820F00200A6
:103D6000801C0870F848406820F080008030F649D8
:103D700048600846006820F0806000F180600860BC
:103D800001F580700A4611685268016042600126A0
:103D900025E0ED4800EBC600EB4A1168526801606F
:103DA0004260EA4800EBC600E74A116852680160C9
:103DB0004260E54906F1100001EBC0000A461168B7
:103DC000526801604260E14806F1100100EBC10059
:103DD000DD4A1168526801604260701CC6B20F2E45
:103DE000D7DDFEF764FAFEF7B2FA00F0F9FE00F054
:103DF0000DFF0090D6489DF80010017000F006FA03
:103E00004FF6FF7000F046FA4FF47A70FEF72CF987
:103E1000CF4909784FF6F07241EA020000F03AFA11
:103E20004FF47A70FEF720F900F049FD00F07CFABB
:103E3000FF208DF81C008DF81D008DF81E008DF8F8
:103E40001F009DF81C0020F001008DF81C009DF85B
:103E50001C0020F008008DF81C0007A800F0BDFA37
:103E600000F0A4FB00F05CFCCDE90401B949BA48BC
:103E7000CDE9021000F0F6FA00F06EFC002000F030
:103E8000DFFCFCF765FCFDF737FFFCF725FDFEF7CF
:103E900073FA00F0EFFE0220B0490870B0490870D4
:103EA00000F03EFCDDE90401CDE908019DF82500A4
:103EB00000F0010010B9FFF7D0FD14E02022A9495D
:103EC0004FF4484000F05BFE00250AE0A54850F89A
:103ED0002500642804D240F6FF70A24941F825006D
:103EE0006D1C082DF2DB65E100F090FE0090984813
:103EF0009DF8001001700078C0F3400048B140F216
:103F0000991099490860B2EE040A984880ED000AB9
:103F100017E08F48007800F0010048B140F2EB1044
:103F2000914908609FED920A904880ED000A08E0F0
:103F300040F233308C490860B1EE040A8B4880EDC2
:103F4000000A1FB900F0ECFBCDE90401022F4ED1AD
:103F500000F0E6FBDDE9043243404A40134346D11A
:103F6000DDE90401CDE9080182480078042825D064
:103F700080480078052821D07E48007806281DD08A
:103F80007C480078072819D0DDE90232DDE9041009
:103F900059405040014309D19DF82000C0F3C000B2
:103FA00020B19DF82000C0F3800000BB08A8FEF7F8
:103FB0001BFADDE90401CDE9020118E0DDE9022385
:103FC000DDE9041051405840014309D19DF820001B
:103FD000C0F3C00020B19DF82000C0F3800030B9CC
:103FE00008A8FEF701FADDE90401CDE90201781C19
:103FF000C7B2022F00DD00275248007800F0010010
:10400000F0B1FFF7DFFA4F48007820F001004D498A
:1040100008705848007804280BD0564800780528C6
:1040200007D054480078062803D052480078072863
:1040300006D14448007820F00100401C4149087036
:1040400040480078C0F3400038B1FFF7D9FC3D4844
:10405000007820F002003B4908700024A7E000F03F
:104060001FFE10B14FF01F0808E04FF00F08424844
:10407000005D102802DD01203F4908554FF0000B7C
:10408000002001903C48005D3C4908553A48015DDC
:1040900008F1010081420DDA3748005DA11D314A67
:1040A00052F82110484308F10101B0FBF1F014303F
:1040B0001FFA80FB3048005D01280EDD2E48005DB0
:1040C000401EA11D274A52F82110484308F1010162
:1040D000B0FBF1F0143880B201904FF0000A0025D7
:1040E00022E084B926488069C0EB00301D49896907
:1040F000B0FBF1F01FFA80F9B9F5805F01DB40F603
:10410000FF79CA440FE01E48C069C0EB0030154972
:10411000C969B0FBF1F01FFA80F9B9F5805F01DBE6
:1041200040F6FF79CA446D1C0A2DDADB1248015DA6
:1041300008F1010081422ADA0A209AFBF0F0584582
:1041400025DD1FE005040020EC060020EC07002020
:104150004C040020FFFDFFF767BF7F003D040020F7
:104160003E040020080400205C04002060040020BD
:10417000F853054128040020580400205A04002068
:10418000EC0800201F48005D401C1E4908551D48D2
:10419000005D01280ADD0A209AFBF0F101988142B6
:1041A00004DA1848005D401E16490855641C022CAC
:1041B000FFF655AF98E630B585B00446684601F085
:1041C0000CFD114A0223019D2846002102F0FAFF4E
:1041D000A0FB0401049002E00498401E049004989F
:1041E0000028F9D105B030BD002809DB00F01F021E
:1041F000012191404209920002F1E022C2F800112F
:10420000704700005804002000E40B541CB5012145
:10421000042001F0B3FD0020009001904FF4607085
:10422000009003208DF8050001208DF80400002087
:104230008DF8060001208DF807006946394801F025
:10424000FFFA1CBD70B50446254600261AE005F0AD
:104250008000002805DD4FF48071324801F06CFBCE
:1042600004E04FF480712F4801F068FB80212D4855
:1042700001F064FB80212B4801F05EFB6806050E0F
:10428000701CC6B2082EE2DB4FF48071254801F0A5
:1042900055FB70BD10B50446C4F30720FFF7D2FFED
:1042A000E0B2FFF7CFFF4FF400711E4801F046FB6C
:1042B0004FF400711B4801F03FFB10BD2DE9F041A8
:1042C00005464FF0FF3424F00104002604E06400AA
:1042D00044F00104701CC6B2AE42F8D300F0E0FC1A
:1042E00018B9A0B2FFF7D6FF19E0270EC4F30748AC
:1042F0004046FFF7A7FF3846FFF7A4FFC4F30720A7
:10430000FFF7A0FFE0B2FFF79DFF4FF400710548F3
:1043100001F014FB4FF40071024801F00DFBBDE801
:10432000F0810000000802401CB50121042001F0CA
:1043300025FD0020009001907020009002208DF853
:10434000050001208DF8040000208DF806000120F2
:104350008DF8070069462C4801F072FA1CBD70B553
:1043600004462546002618E005F08000002804DDFC
:104370002021254801F0E0FA03E02021224801F045
:10438000DDFA1021204801F0D9FA10211E4801F071
:10439000D3FA6806050E701CC6B2082EE4DB202195
:1043A000194801F0CBFA70BD10B50446E0B2FFF732
:1043B000D6FFC4F30720FFF7D2FFC4F30740FFF78F
:1043C000CEFF200EFFF7CBFF40210F4801F0B6FAD9
:1043D00040210D4801F0B0FA10BD10B50446207818
:1043E000FFF7BDFF6078FFF7BAFFA078FFF7B7FFD0
:1043F000E078FFF7B4FF4021034801F09FFA402125
:10440000014801F099FA10BD0008024010B50446B9
:1044100000BF0221634801F0D8FF0028F9D02146EF
:10442000604801F09BFF00BF01215E4801F0CDFF15
:104430000028F9D05B4801F08EFF10BD70B505462D
:104440000C464FF48051584801F078FA2846FFF79F
:10445000DDFF2046FFF7DAFF4FF48051524801F0AC
:104460006BFA70BD00B587B00121022001F086FC17
:1044700005220D214C4801F06EFA05220F214A4811
:1044800001F069FA4FF42040059002208DF81800E1
:1044900000208DF81A008DF81B0002208DF81900FD
:1044A00005A9414801F0CCF94FF480500590012056
:1044B0008DF8180000208DF81A0001208DF81B00DF
:1044C00002208DF8190005A9374801F0B9F901213A
:1044D000880301F09CFC334801F090FD684601F030
:1044E000A6FE4FF48040ADF800000020ADF80C00AF
:1044F0004FF48270ADF802000820ADF804000020EF
:10450000ADF80600ADF80800ADF80E004FF40070ED
:10451000ADF80A006946234801F0BCFD012121489D
:1045200001F09BFE4FF480711E4801F0C5FE07B0FC
:1045300000BD2DE9F04107460C46B4F5806F01D36C
:1045400040F2FF3437B1012F0CD0022F12D0032FCD
:1045500020D117E0C4F3831040F03005FC2000EABE
:10456000840617E0C4F3831040F07005FC2000EAD5
:1045700084060FE0C4F3831040F0B005FC2000EA8D
:10458000840607E0C4F3831040F0F005FC2000EA45
:10459000840600BF00BF31462846FFF74FFFBDE845
:1045A000F081000000380040000402401FB50121E6
:1045B000042001F0E3FB0020029003900E20029003
:1045C00001208DF80C0000208DF80E008DF80F00F2
:1045D00003208DF80D0002A95E4801F031F900209A
:1045E000009001900120009000208DF804006946A1
:1045F000584801F025F90821564801F09DF9042199
:10460000544801F09BF90221524801F097F91FBD6F
:1046100010B504214F4801F091F902214D4801F0F5
:104620008DF908214B4801F089F90120FBF72CFE98
:104630000821484801F080F910BD70B5002400251C
:104640000121444801F05EF9012801D144F0010440
:104650000221404801F070F9002519E002213D488F
:1046600001F06CF90120FBF70FFE6006040E01213A
:10467000384801F047F9012801D144F00104022132
:10468000344801F059F90120FBF7FEFD681CC5B262
:10469000072DE3DB02212F4801F050F9204670BDC1
:1046A00008B500200090FFF7C8FF8DF80000FFF765
:1046B000C4FF8DF80100FFF7C0FF8DF80200FFF77F
:1046C000BCFF8DF803009DF8030000069DF8021062
:1046D00040EA01409DF8011040EA01209DF80010D9
:1046E000084308BD08B500200090FFF7A6FF8DF82D
:1046F0000000FFF7A2FF8DF80100FFF79EFF8DF885
:1047000002009DF8030000069DF8021040EA0140F7
:104710009DF8011040EA01209DF80010084308BDF3
:1047200070B504210B4801F009F90A20FBF7ACFD34
:10473000FFF76EFFFFF7B4FF0546FFF7D3FF044610
:104740000421044801F0F8F80020014628432143E1
:1047500070BD0000000802401CB50121042001F0DA
:104760000DFB0020009001904FF46040009002206B
:104770008DF8050001208DF8040000208DF806005A
:1047800001208DF807006946334801F059F81CBD37
:1047900010B50146002219E001F08003002B05DD71
:1047A0004FF480432C4C1834238004E04FF48043B2
:1047B000294C1A3423804FF40053274C1A34238099
:1047C000A41E23804B06190E531CDAB2082AE3DB21
:1047D0004FF48043204C1A34238010BD30B504467A
:1047E0000D46E8B2FFF7D4FF4FF07F4204EA020122
:1047F0000022090E41EA0221C8B2FFF7C9FFE0B268
:10480000FFF7C6FF4FF47F4204EA02010022090AC3
:1048100041EA0261C8B2FFF7BBFF4FF47F0204EA2E
:1048200002010022090C41EA0241C8B2FFF7B0FFC1
:104830004FF4004008491A310880891E088030BDB5
:1048400010B50446054800EBC400D0E9002110462D
:10485000FFF7C4FF10BD00000008024088040020DC
:1048600010B5044600BF0221DA4801F0AEFD002871
:10487000F9D02146D74801F071FD00BF0121D5488C
:1048800001F0A3FD0028F9D0D24801F064FD10BD6D
:1048900010B500BF0221CF4801F097FD0028F9D0E4
:1048A0000021CC4801F05AFD00BF0121C94801F0A8
:1048B0008CFD0028F9D0C74801F04DFD10BD00B5B2
:1048C00087B00121042001F059FA05A801F000F891
:1048D0004FF4E050059002208DF8180000208DF86C
:1048E0001A0001208DF81B0002208DF8190005A97F
:1048F000B94800F0A5FF0121082001F03FFA05A802
:1049000000F0E6FF0420059001208DF8180000203B
:104910008DF81A0001208DF81B0003208DF8190076
:1049200005A9AE4800F08CFF06220A21AA4801F032
:1049300012F806220B21A84801F00DF806220C21DE
:10494000A54801F008F80421A44800F0F5FF012172
:10495000C80301F05CFA9F4801F050FB684601F083
:1049600066FC0020ADF800001020ADF80C004FF4FC
:104970008270ADF802000020ADF804000220ADF80E
:1049800006000120ADF808000020ADF80E004FF43D
:104990000070ADF80A0069468E4801F07BFB0121EA
:1049A0008C4801F05AFC4FF480718A4801F084FC75
:1049B00007B000BD10B500240421884800F0BEFFF8
:1049C0000520FFF74DFF0220FFF7F5FBFFF760FF23
:1049D000C4B2C820FFF7EFFB0421804800F0ACFF11
:1049E000204610BD10B5044604217C4800F0A6FF07
:1049F0000120FFF735FF0220FFF7DDFB2046FFF720
:104A00002FFFC820FFF7D7FB0421744800F094FF64
:104A100010BD10B50421714800F090FF0620FFF78B
:104A20001FFFC820FFF7C7FB04216C4800F084FF7C
:104A300010BD10B50421694800F080FF0420FFF785
:104A40000FFFC820FFF7B7FB0421644800F074FF94
:104A500010BD70B504460D460421604800F06EFF9D
:104A60000220FFF7FDFE200AFFF7FAFEE0B2FFF793
:104A7000F7FE2846FFF7F4FEC820FFF79CFB042151
:104A8000564800F059FF70BD70B5044604215348E4
:104A900000F054FF0320FFF7E3FE200AFFF7E0FEDB
:104AA000E0B2FFF7DDFEFFF7F3FEC5B2C820FFF767
:104AB00082FB0421494800F03FFF284670BD2DE9E4
:104AC000F04105460E4617460024FFF7A2FF0421D9
:104AD000424800F033FF0220FFF7C2FE280AFFF72A
:104AE000BFFEE8B2FFF7BCFE31E004F07F0048BB38
:104AF00044B3C820FFF75FFB0421384800F01CFFD7
:104B00000120FDF7B1FA02E00120FDF7ADFAFFF751
:104B100051FF00F001000028F6D10120FDF7A4FAB2
:104B2000FFF777FF04212D4800F008FF0220FFF770
:104B300097FE2919C1F30720FFF792FE2919C8B281
:104B4000FFF78EFE305DFFF78BFE601C84B2BC4227
:104B5000CBDBC820FFF72FFB0421204800F0ECFE40
:104B60000120FDF781FA02E00120FDF77DFAFFF751
:104B700021FF00F001000028F6D1BDE8F0812DE909
:104B8000F04104460E4617464FF000080025042168
:104B9000124800F0D3FE0320FFF762FE200AFFF761
:104BA0005FFEE0B2FFF75CFE08E0FFF771FE7055B4
:104BB000681C85B208F101001FFA80F8BD42F4DBE1
:104BC000C820FFF7F8FA0421044800F0B5FEBDE85C
:104BD000F0810000003C004000080240000C024050
:104BE0001CB50121084601F0C9F84FF42940009096
:104BF00000208DF8040001208DF8070000208DF8BA
:104C0000050069461A4800F01BFE1CBD08B54FF4AC
:104C10000061174800F076FEC0439DF8001060F375
:104C2000000100914FF40051114800F06BFEC043A9
:104C30009DF8001060F3820100914FF400410C4890
:104C400000F060FEC0439DF8001060F34101009148
:104C50004FF48071064800F055FEC0439DF80010E7
:104C600060F3C30100919DF80010084608BD0000E4
:104C7000000002401CB50121022001F07FF84FF432
:104C80008040009000208DF8040002208DF807007D
:104C900000208DF805006946084800F0D1FD1CBDD4
:104CA00008B5FFF7B3FF00909DF80000C0F3C00007
:104CB00008B1012008BD0020FCE70000000402400C
:104CC0000CB50020019000907648006840F48030D8
:104CD0007449086000BF7348006800F40030009019
:104CE0000198401C0190009818B90198B0F5A04FA8
:104CF000F1D16C48006800F4003010B10120009040
:104D000001E0002000900098012846D1654840301D
:104D1000006840F080506349403108606248006894
:104D200040F44040604908605E48083000685D49D2
:104D3000083108600846006840F4004008600846F2
:104D4000006840F4A05008605848091F0860081F18
:104D5000006840F08070091F086000BF514800687B
:104D600000F000700028F9D040F20570504908604A
:104D70004C480830006820F003004A4908310860B8
:104D80000846006840F00200086000BF454808304F
:104D9000006800F00C000828F8D10CBD10B545489B
:104DA000006840F47000434908603E48006840F0E5
:104DB00001003C49086000203A4908310860394840
:104DC00000683D490840374908603C48091D0860B3
:104DD000081F006820F48020091F08600020314966
:104DE0000C310860FFF76CFF4FF0006031498039EB
:104DF000086010BD70B500200022022300240221AB
:104E0000284D08352D6805F00C0020B1042806D087
:104E1000082834D107E02A4D2A4E356033E02A4D68
:104E2000284E35602FE01F4D2D1D2D68C5F3805491
:104E30001C4D2D1D2D6805F03F0154B1224DB5FBD1
:104E4000F1F5184E361D3668C6F3881605FB06F2D6
:104E500009E01B4DB5FBF1F5124E361D3668C6F361
:104E6000881605FB06F20F4D2D1D2D68C5F3014573
:104E70006D1C6B00B2FBF3F5124E356003E0104D74
:104E8000104E356000BF00BF064D08352D68C5F3D4
:104E900003150E4E705D0B4D2D68C540094E3560F3
:104EA00070BD0000003802400070004019544007F7
:104EB000003C024088ED00E0FFFFF6FE10300024C9
:104EC0000024F400C806002040787D01CC060020B4
:104ED00032490143324A1160704770B50021002306
:104EE0000F22C4781CB32E4C246804F4E064C4F58B
:104EF000E064C4F30721C1F10404E3B20A41447839
:104F00009C40E1B28478144021430C07210E254CCB
:104F100005786155047804F01F050124AC4005783C
:104F20006D11AD0005F1E025C5F8004109E00478F8
:104F300004F01F050124AC401B4D0678761145F89E
:104F4000264070BD194A0A400243154B1B1F1A60C8
:104F5000704739B1124A121D12680243104B1B1DD3
:104F60001A6006E00E4A121D126882430C4B1B1D8C
:104F70001A607047042808D14FF0E021096941F018
:104F800004014FF0E022116107E04FF0E0210969D0
:104F900021F004014FF0E022116170470000FA0592
:104FA0000CED00E000E400E080E100E080FFFF1F86
:104FB00010B50121080200F090FF00214FF480702D
:104FC00000F08BFF10BD30B5024600200023506872
:104FD000F84C20400D790C6844EA052420435060C9
:104FE0009068F54C2040D1E903542C438D682C4344
:104FF0004D7944EA450420439060D06A20F4700063
:105000000C7D641EE4B2234340EA0350D06230BDFD
:1050100000210160017141718160C1600161012164
:10502000017570470021E54A1168E54A1140D0E951
:1050300000231A4383681A43C3681A431143E14AA1
:10504000C2F8041370470021016041608160C160B3
:10505000704721B1826842F00102826003E08268F9
:1050600022F00102826070470A4600214168D64B57
:1050700019401143416070474162826270470A469D
:105080000021416821F01F0111434160704738B190
:10509000CA49096841F40001CA4AC2F8041306E08B
:1050A000C649096821F40001C64AC2F804137047D2
:1050B00038B1C249096841F48001C24AC2F80413F8
:1050C00006E0BE49096821F48001BE4AC2F8041313
:1050D0007047F0B504460D4600200021092D11DD72
:1050E000E068A5F10A0606EB4607072606FA07F16F
:1050F0008843A5F10A0606EB460603FA06F10843C3
:10510000E0600CE0206905EB4507072606FA07F189
:10511000884305EB450603FA06F108432061072A98
:105120000FDA606B561E06EB86071F2606FA07F19C
:105130008843561E06EB860605FA06F108436063AF
:1051400022E00D2A0FDA206BD61F06EB86071F26FA
:1051500006FA07F18843D61F06EB860605FA06F124
:105160000843206310E0E06AA2F10D0606EB860713
:105170001F2606FA07F18843A2F10D0606EB860604
:1051800005FA06F10843E062F0BD816841F0804114
:1051900081607047014600208A6802F080420AB1AF
:1051A000012000E00020704721B1826842F4806253
:1051B000826003E0826822F480628260704721B1DD
:1051C000826842F00202826003E0826822F00202FA
:1051D0008260704710B50A4600210023416821F41F
:1051E0006041531E41EA4331416010BD21B1426824
:1051F00042F40062426003E0426822F400624260CE
:1052000070470146C86C80B270476C48001D00684A
:10521000704721B1826842F48072826003E0826844
:1052200022F480728260704721B1826842F4007279
:10523000826003E0826822F400728260704738B1B5
:105240005E49096841F400515E4AC2F8041306E061
:105250005A49096821F400515A4AC2F804137047A8
:10526000F0B504461546002000220026092911DD6C
:10527000E068A1F10A0707EB470C072707FA0CF2D1
:105280009043A1F10A0707EB470703FA07F210431F
:10529000E0600CE0206901EB410C072707FA0CF2F3
:1052A000904301EB410703FA07F210432061A06B22
:1052B000C0F30156EF1C06F1010CA7EB0C0707EB3E
:1052C000870C1F2707FA0CF29043EF1C06F1010C24
:1052D000A7EB0C0707EB870701FA07F21043A0635F
:1052E000F0BD10B50A4600210023816B21F4401166
:1052F000531E41EA0351816310BD08B5002300939A
:105300000090009B0B440093009B1A6008BD0A4666
:105310000021816821F470211143816070470A46A1
:105320000021816821F44011114381607047816838
:1053300041F4800181607047014600208A6802F4D0
:1053400080020AB1012000E00020704721B14268CC
:1053500042F48062426003E0426822F4806242606C
:10536000704721B1426842F48052426003E04268D3
:1053700022F480524260704708B502460020009037
:10538000009201F12800009B1844009000980068EA
:1053900080B208BD10B50B460021D9B2012404FA31
:1053A00001F11AB144680C43446002E044688C4344
:1053B000446010BDFFFEFFFCFDF7FFC00423014069
:1053C000E030FCFF00200140FFFD3FFF02460020CF
:1053D00013680B400BB1012000E000207047CA4366
:1053E0000260704770B502460020002300240B12B3
:1053F000556801268E4005EA060415681D4015B162
:105400000CB1012000E0002070BD00220A12D3433D
:105410000360704710B50121480700F04DFD0021E1
:105420004FF0005000F048FD10BD30B500220023C1
:105430007B4C226840F6FE748440A243D1E90045CB
:105440002C438D682C43CD6844EA050303FA00F42D
:105450002243734C226030BD0021016041608160B5
:10546000C160704739B16E4A1268012383401A4304
:105470006B4B1A6006E06A4A1268012383409A4324
:10548000674B1A60704710B551B1654A121D12681A
:1054900004090123A3401A43614B1B1D1A6009E054
:1054A0005F4A121D126804090123A3409A435C4B12
:1054B0001B1D1A6010BD40B15949091D096841F012
:1054C0000301574A121D116007E05549091D09687B
:1054D00021F00301524A121D1160704710B53AB114
:1054E0004F4B1B6801FA00F423434D4C236006E048
:1054F0004B4B1B6801FA00F4A343494C236010BDD9
:1055000008B500220092464A009200F10802009B72
:105510001A440092009A116008BD08B5002200925A
:105520003F4A009200F11402009B1A440092009A34
:10553000116008BD30B500240023082802D142EADA
:10554000012401E042EA0144354B00F120052B44DF
:105550001C6030BD08B50146002000903048009026
:105560002C2000EB9100009A1044009000980068F5
:1055700080B208BD41B12A4A12684FF4805383407B
:105580001A43274B1A6007E0254A12684FF48053EC
:1055900083409A43224B1A60704710B53AB1204BB2
:1055A0001B6801FA00F423431D4C236006E01C4BEA
:1055B0001B6801FA00F4A343194C236010BD10B519
:1055C00002460020164B34331B6801FA02F42340D4
:1055D0000BB1012000E0002010BD01FA00F2104BD9
:1055E00034331A60704730B50246002000230C4C5B
:1055F000246801FA02F504EA0503094C34342468EE
:1056000001FA02F52C4014B10BB1012000E000209A
:1056100030BD01FA00F2024B34331A6070470000CB
:1056200000740040002041490860091D0860091D00
:105630000860091D08603E483C4914310860704705
:1056400000213A498279002A3AD00A461268036852
:105650009A430B461A600A1D126803689A430B1D91
:105660001A60027911440A6803681A430A602F4AD3
:105670000832126803689A432C4B08331A601A1DCB
:10568000126803689A43294B0C331A604279102A36
:105690000ED11A1F126803681A43244B08331A608C
:1056A0001A1D126803681A43204B0C331A600DE070
:1056B0001E49427911440A6803681A430A6005E0EA
:1056C000027911440A6803689A430A60704700210E
:1056D000016001710C2141710021817170471349F2
:1056E000103109680143114A1032116070470146B8
:1056F00000200E4A143212680A400AB1012000E06C
:1057000000207047094914310860704701460020A5
:10571000064A143212680A400AB1012000E0002053
:10572000704702491431086070470000003C014096
:10573000FFFF7F0010B504469848844208D101213C
:10574000084600F086FB0021012000F082FB76E095
:105750009348844208D10121022000F07AFB002105
:10576000022000F076FB6AE08E48844208D10121D5
:10577000042000F06EFB0021042000F06AFB5EE0D4
:105780008948844208D10121082000F062FB0021F1
:10579000082000F05EFB52E08448844208D10121D9
:1057A000102000F056FB0021102000F052FB46E0D4
:1057B0007F48844208D10121202000F04AFB0021CB
:1057C000202000F046FB3AE07A48844208D10121CB
:1057D000402000F03EFB0021402000F03AFB2EE08C
:1057E0007548844208D10121802000F032FB00215D
:1057F000802000F02EFB22E07048844208D1012175
:10580000801500F026FB0021A01500F022FB16E019
:105810006B48844208D10121401500F01AFB002199
:10582000601500F016FB0AE06648844207D10121AA
:10583000001500F00EFB0021201500F00AFB10BD42
:10584000F0B50A4600210023002400BF3DE00125F9
:1058500005FA01F3156805EA03049C4234D1056892
:105860004F000326BE40B543056015794E00B54094
:105870000668354305601579012D02D01579022D92
:1058800016D185684F000326BE40B5438560557923
:105890004E00B540866835438560456801268E40D8
:1058A000B5434560456896798E40B6B2354345604C
:1058B000C5684F000326BE40B543C560D5794E008C
:1058C000B540C6683543C560491C1029BFD3F0BD3B
:1058D0004FF6FF7101600021017141718171C17149
:1058E000704708B54FF480320092009A0A43009244
:1058F000009AC261C161009AC261C2690092C26924
:10590000009208BD0246002013690B400BB1012034
:1059100000E0002070470146086980B270470246E7
:10592000002053690B400BB1012000E000207047BC
:105930000146486980B270470183704741837047D0
:105940000AB1018300E041837047416170474269B9
:105950004A4042617047F0B5002300244D07ED0E28
:1059600002FA05F3CE1000F1200555F826504E0737
:10597000F70E0F26BE40B543CF1000F1200646F8C3
:105980002750CE1000F1200555F8265045EA0304B3
:10599000CE1000F1200545F82640F0BD0000024081
:1059A0000004024000080240000C024000100240C7
:1059B0000014024000180240001C02400020024077
:1059C0000024024000280240F948006840F001002D
:1059D000F74908600020F64908310860F44800687B
:1059E000F4490840F2490860F348091D0860F3488B
:1059F000EF4984310860F0481038091D0860EC4810
:105A0000006820F48020EA4908600020E8490C3151
:105A10000860E7498C31086070470021E44A921C15
:105A2000117011460870704710B50146002200231E
:105A300000204A11012A02D1DD4C236808E0022A25
:105A400003D1DB4C7034236802E0D94C74342368F2
:105A500001F01F02012494401C400CB1012000E021
:105A6000002010BD38B5002000900024002500BFA4
:105A70003120FFF7D9FF05460098401C00900098A0
:105A8000B0F5A04F01D0002DF2D03120FFF7CCFFB0
:105A900008B1012400E00024204638BD0146002062
:105AA000C34A106820F0F80040EAC1001060704757
:105AB000C349086070470021BD4A703211701170EF
:105AC000012802D004280AD104E00121B84A70322A
:105AD000117005E00521B64A7032117000E000BF78
