:020000040800F2
:10000000B0140020896D0008916D0008936D000800
:10001000956D0008976D0008996D000800000000BC
:100020000000000000000000000000009B6D0008C0
:100030009D6D0008000000009F6D0008A16D000884
:10004000A36D0008A36D0008A36D0008A36D000850
:10005000A36D0008A36D000881090008C90A000803
:10006000A36D0008A36D0008A36D0008A36D000830
:10007000A36D0008A36D0008A36D0008A36D000820
:10008000A36D0008A36D0008B3020008A36D00086B
:10009000A36D0008A36D0008A36D0008C70B00083E
:1000A000A36D0008A36D0008A36D0008A36D0008F0
:1000B000A36D0008DD1D000861130008A36D000892
:1000C000A36D0008A36D0008A36D0008A36D0008D0
:1000D000A36D0008A36D0008A36D0008A36D0008C0
:1000E000A36D0008A36D0008A36D0008A36D0008B0
:1000F000691D0008A11D0008A36D0008A36D00087C
:10010000A36D0008A36D0008C1170008A36D0008C7
:10011000A36D0008A36D0008491F00087D1E00089C
:10012000A36D0008A36D0008A36D0008A36D00086F
:10013000A36D0008A36D0008A36D0008A36D00085F
:10014000A36D0008A36D0008A36D0008A36D00084F
:10015000A36D0008A36D0008A36D0008A36D00083F
:10016000A36D0008A36D0008A36D0008A36D00082F
:10017000A36D0008A36D0008A36D0008A36D00081F
:10018000A36D0008A36D000800F002F800F05CF811
:100190000AA090E8000C82448344AAF10107DA45E2
:1001A00001D100F051F8AFF2090EBAE80F0013F0D8
:1001B000010F18BFFB1A43F001031847087900002C
:1001C000287900000A444FF0000C10F8013B13F0AE
:1001D000070408BF10F8014B1D1108BF10F8015BA0
:1001E000641E05D010F8016B641E01F8016BF9D193
:1001F00013F0080F1EBF10F8014BAD1C0C1B09D1EA
:100200006D1E58BF01F801CBFAD505E014F8016B5B
:1002100001F8016B6D1EF9D59142D6D370470000ED
:100220000023002400250026103A28BF78C1FBD8FF
:10023000520728BF30C148BF0B6070471FB507F099
:100240003CFC1FBD10B510BD06F064FF1146FFF762
:10025000F5FF03F07FFC06F082FF03B4FFF7F2FF27
:1002600003BC06F089FF000010B5002807DA0A0772
:10027000140EFE4A00F00F031B1FD45403E00A07BC
:10028000130EFB4A135410BD10B586B0044601A8E6
:1002900005F0A5FAF7490298B0FBF1F0604305902C
:1002A00002E00598401E059005980028F9D106B097
:1002B00010BD70B5002504F0FDFB70B1EE4800786C
:1002C000472803DB002004F0C5F914E0EA49097867
:1002D000491CC8B204F0BEF90DE0E74800782728B1
:1002E00003DB002004F0B6F905E0E3490978491C76
:1002F000C8B204F0AFF90221E04804F069FE012819
:100300007ED1DD4800780F287BDCDD48DA490978AA
:1003100000EBC1004068C0F34030A8B1D748C16CC1
:10032000D748D54A127850F83200C0F30B0081420A
:1003300058D1D349D04A127801EBC201081D49684F
:1003400021F4005101604DE0CC48C06C81B2CA4834
:10035000007800EB8002CB4800EB8202CA48C64B13
:100360001B78C05C22F81010C749C34A127888185D
:100370000178491C0170C448BF490978405C0A28CB
:1003800004D10021C048BC4A127881540021BF4AE0
:1003900011605160002413E0B748007800EB800141
:1003A000B84800EB810030F81400B84B1A685B685D
:1003B000801843F10001B54A10605160601CC4B25E
:1003C0000A2CE9DBAE48AC49097800EBC1060A22E9
:1003D0000023AE490868496806F0FEFD316860F305
:1003E0000B013160AA48A449097800EBC1004068BC
:1003F000C0F34030C0B1A148C06CA5499E4A01E09D
:1004000062E164E0127851F83210C1F30B018842C6
:100410005CD19F49984A127801EBC201081D4968D6
:1004200021F40051016051E09448C06C82B29248BE
:10043000007800EB8000974901EB80009249203959
:100440008D4B1B78C95C20F811208F4920398A4ACE
:10045000127888180178491C01708B482038864929
:100460000978405C0A2805D1002087492039824A52
:10047000127888540021854A11605160002413E0ED
:100480007D48007800EB8000824901EB800030F865
:1004900014007E4A13685268C01842F100017B4A7A
:1004A00010605160601CC4B20A2CE9DB78487249C4
:1004B000097800EBC1060A220023744908684968DC
:1004C00006F08AFD316860F30B013160012504F00C
:1004D000F1FA00287ED068480078282871DB664849
:1004E000007837286DDC644800781838644901EBDF
:1004F000C0004068C0F34030B0B16048C26C5E4894
:100500000078183851F83000C0F30B00824220D137
:100510005949097818395A4A02EBC101081D49683E
:1005200021F40051016014E0534909781839544A04
:1005300002EBC1005149CB6C4F490978183952F888
:100540003110C1F30B0119444A08016862F30B0131
:1005500001604948007818384D4901EBC0004068F7
:10056000C0F34030B0B14548C16C434800781838FA
:10057000474A52F83000C0F30B00814220D13E4977
:100580000978183902EBC101081D496821F40051AE
:10059000016015E03849097818393D4A02EBC1007D
:1005A0003649CA6C344909781839394B53F8311037
:1005B000C1F30B0111444A08016862F30B010160A9
:1005C00001252D480078382830DB2B480078472853
:1005D0002CDC00E02AE02849097828392C4A02EB73
:1005E000C10025490978283952F83110C1F30B317F
:1005F000224AD26C11444A08016862F31731016043
:100600001D49097828391E4A02EBC1001A490978A8
:10061000283952F83110C1F30B31184AD26C114409
:100620004A08016862F31731016001251248007819
:10063000182845DB10480078272841DC0E49097846
:100640001839134A02EBC1000B490978183952F8DE
:100650003110C1F30B31094AD26C11444A080168C8
:1006600062F3173101600449097815E018ED00E0E4
:1006700000E400E08096980004040020002001407F
:10068000EC0700208C0B00202C0E002068040020BA
:10069000EC0600200C0900201839FD4A02EBC100CD
:1006A000FC490978183952F83110C1F30B31FA4A74
:1006B000D26C11444A08016862F3173101600125C8
:1006C0000221F54804F08DFC0221F44804F080FC7E
:1006D000012815D1EF48007810280DDBED4800788F
:1006E000172809DCED484C300168EA4800781038DA
:1006F000EB4A42F8201001250221E84804F071FC81
:1007000004F0D8F960B1D5B1E2480078401CE14965
:10071000087008460078482811DB002008700EE0B9
:100720006DB1DC480078401CDA4908700846007852
:10073000282804DB002008700A20FFF7A5FD70BD03
:1007400000B58DB00121084605F063F902A805F057
:10075000AAFD0020ADF80800ADF80A0041F26700DC
:1007600003900020ADF8100002A94FF0804005F082
:1007700066FD5021880606F0BBFA01220421080715
:1007800006F054F80121880705F049FF4FF080403A
:10079000008B40F4E0404FF080410883012188073E
:1007A00005F0D6FD01211220FFF75EFD012108466C
:1007B00005F0E6F800200B900C9003200B908DF8CC
:1007C00030000BA9B74804F03DFE0121080205F0F6
:1007D00031F90121480205F02DF905A804F01AFAB3
:1007E00000208DF8190009904FF0C06008904FF07C
:1007F0008050079001208DF82800002005908DF88A
:10080000180005A9A44804F0E0F905A9A34804F0DC
:10081000DCF90723012200219F4804F05CFA07233A
:10082000012211469D4804F056FA12208DF804006A
:1008300001208DF8050000208DF8060001208DF8BC
:10084000070001A804F04BF900209249087003F05A
:1008500001FF122003F0EDFB012240F205218E483A
:1008600004F09AFB012240F205218C4804F094FB2D
:100870000121894804F0EFF90121884804F0EBF9DF
:100880000DB000BD122001218140874A430942F882
:10089000231000BF704710B5122003F0CAFB10BD33
:1008A00000B585B00121880305F0C4F800208DF85B
:1008B0001000A320039000208DF8130003208DF872
:1008C000110003A9794804F0BDFD0021012005F0C5
:1008D000D0FB0121084605F0CCFB0521012005F0E5
:1008E000C8FB0721012005F0C4FB04F09DFCA320F8
:1008F000019000208DF8080010208DF809000120DB
:100900008DF80A0001A804F09DFC06208DF8000077
:1009100000208DF801008DF8020001208DF8030001
:10092000684604F0DCF807208DF8000000208DF800
:1009300001008DF8020001208DF80300684604F0E4
:10094000CEF817208DF8000000208DF801008DF8FA
:10095000020001208DF80300684604F0C0F8012071
:1009600004F0E1FC022004F0DEFC202004F0DBFCBB
:10097000402004F0D8FC802004F0D5FC05B000BD78
:1009800010B54A481030006800F00100F0B948483E
:10099000007801281AD046480078042816D0444828
:1009A0000078052812D000204249087002204049F2
:1009B00008704148007820F00100401C3E49087052
:1009C0000846007820F00200801C0870012004F026
:1009D000AAFC10BD10B50121022005F01AF842F65C
:1009E0000410364908802820091D0860002033497A
:1009F000091F0860012031491C3908802F48283818
:100A0000008840F001002D49283908801D2003F09E
:100A100010FB10BD10B50121202004F0FAFF42F6B2
:100A20000410274908802820091D08600020244957
:100A3000091F0860012022491C39088020482838F5
:100A4000008840F001001E4928390880372003F053
:100A5000F0FA10BD10B50121102004F0DAFF45F2C4
:100A6000082018490885C820C86200204862012073
:100A700088810846008840F001000880362003F095
:100A8000D8FA012211460F4806F07AF810BD00008E
:100A9000EC07002004040020002001400021014058
:100AA000EC0800200000024080E100E00004024069
:100AB0003D040020410400200504002028040040DB
:100AC000281400400010004010B5FE48006800F0F7
:100AD0000200F0B9FC48007801281AD0FA480078E2
:100AE000042816D0F8480078052812D00020F749CD
:100AF00008700220F4490870F548007820F00100E1
:100B0000401CF34908700846007820F00200801C61
:100B10000870022004F007FC10BD2DE9F0470746DD
:100B20000C464FF00009C846002503F0C3FF08B18A
:100B30001F2605E00F260F2C02DD0020BDE8F08700
:100B4000E44800EB072000EBC4004068C0F3401805
:100B5000B8F1000F2AD0002525E0A5420DDCDD48C4
:100B600000EB0720611B00EBC1004068C0F30010E0
:100B700098B1601B00F0FF0917E0D64800EB072092
:100B8000291B711A00EBC1004068C0F3001020B1AE
:100B9000281B301A00F0FF0907E0B54201D14FF0E1
:100BA0000008681CC5B2B542D7DD00BFB8F1000F20
:100BB00007D1B44202DB4FF0000902E0601C00F0F4
:100BC000FF094846BAE710B5C348006800F0800046
:100BD00008B3C2480078052814D0C048007804281B
:100BE00010D0BE48007801280CD0BC48007848B12D
:100BF0000020BA490870BA4801780020FFF78DFF3D
:100C0000B7490870B5480078042801D1FFF7E2FE23
:100C1000802004F088FBB048006800F0200008B392
:100C2000A9480078052814D0A7480078042810D0D7
:100C3000A548007801280CD0A348007848B10020CE
:100C4000A1490870A74801780120FFF766FFA54970
:100C500008709D480078042801D1FFF7DBFE2020B2
:100C600004F061FB9C48006800F0400090B1964899
:100C7000007802280BD19348006800F0400030B99A
:100C8000914800789149087000208F4908704020F1
:100C900004F049FB8E48007820F00100401C8C498C
:100CA00008700846007820F00200801C087010BD13
:100CB00010B50446FFF7E6FD03F0FCFEB8B98A491B
:100CC000097861434FF6FF7202EA41204FF48072C7
:100CD000804903F0FEFD8449097861434FF4807236
:100CE00002EB412188B2814903F0F3FD14E004F1E5
:100CF00020014FF6FF7202EA41204FF480727549DD
:100D000003F0E7FD04F120014FF4807202EB412172
:100D100088B2764903F0DDFDFFF712FD002010BD1B
:100D200070B50546FFF7AEFD03F0C4FEB8B96E49D5
:100D3000097869434FF6FF7202EA41204FF480724E
:100D4000644903F026FE6849097869434FF48072CC
:100D500002EB412188B2654903F01BFE14E005F166
:100D600020014FF6FF7202EA41204FF48072594988
:100D700003F00FFE05F120014FF4807202EB4121D8
:100D800088B25A4903F005FE59480078C0F3800044
:100D9000002871D000246DE04E4800EBC40040688C
:100DA00020F4005000F500504A4901EBC4014860AE
:100DB000484800EBC400406820F4804000F58040C3
:100DC000444901EBC4014860484800EBC400406856
:100DD00020F4005000F50050444901EBC401486084
:100DE000424800EBC400406820F4804000F5804099
:100DF0003E4901EBC4014860364904F1100001EBA3
:100E0000C000406820F4005000F500500A4604F18C
:100E1000100102EBC1014860114604F1100001EB22
:100E2000C000406820F4804000F5804004F11001CB
:100E300002EBC10148602D4804F1100100EBC10034
:100E4000406820F4005000F50050284904F11002D9
:100E500001EBC20148602548114600EBC100406823
:100E600020F4804000F58040204901EBC201486039
:100E7000601CC4B2102C8FDB022018490870124984
:100E80000870FFF75DFC70BD2DE9F0412DED0A8B78
:100E900004460D460027002008EE100A00260D48E3
:100EA00000EB042000EBC5004068C0F38020E8B3ED
:100EB000084800EB042050F83500C0F30B3040F236
:100EC000FF3117E0100402403E04002042040020DD
:100ED00005040020EC060020143C01403D040020E5
:100EE000290400202A04002070040020EC070020C0
:100EF0004C04002090FBF1F0C6B2FE4850F82600EA
:100F000000EE100AB8EE400A10EE101A084606F07D
:100F100063FD41EC1C0B53EC1C2B9FEDF70B51ECCC
:100F2000100B06F0D9F941EC1A0B00E011E0F4497E
:100F300051F8260006F055FB41EC1B0B53EC1A2B25
:100F400006F062FB41EC190B06F01EFB08EE100ADE
:100F500008E0EC4800EB042050F83500C0F30B30FB
:100F600008EE100AE74800EB042000EBC5004068DB
:100F7000C0F3801088B1B8EE480ADFEDE30A60EEF6
:100F8000200A9FEDE21A80EE810AF2EE000A30EEAE
:100F9000200ABCEEC00A10EE107ADA4800EB0420FA
:100FA00000EBC5004068C0F3C01088B1B8EE480A35
:100FB000DFEDD70A20EE200A9FEDD41AC0EE010A19
:100FC0009FEDD40A30EE800ABCEEC00A10EE107A13
:100FD000CC4800EB042000EBC5004068C0F30020C3
:100FE00088B1B8EE480ADFEDCC0A60EE200A9FED2A
:100FF000C71A80EE810ADFEDC90A30EE200ABCEE86
:10100000C00A10EE107ABF4800EB042000EBC500C8
:101010004068C0F3402088B1B8EE480ADFEDC00A4E
:1010200060EE200A9FEDB91A80EE810ADFEDBD0A5D
:1010300030EE200ABCEEC00A10EE107A3846BDEC45
:101040000A8BBDE8F0812DE9F0412DED088B0546B6
:101050000E4600240027A046AA4800EB052050F8C1
:101060003600C0F3C060D0B3A64800EB052050F8AE
:101070003600C0F30B0040F2FF3190FBF1F000F0BE
:10108000FF08B8F1030F01DD4FF00308994850F84D
:10109000280000EE100AB8EE400A10EE101A0846BA
:1010A00006F09AFC41EC1B0B53EC1B2B9FED920BB3
:1010B00051EC100B06F010F941EC190B904951F866
:1010C000280006F08EFA41EC1A0B53EC192B06F0AF
:1010D0009BFA41EC180B06F057FA074607E0FFE7CA
:1010E000884800EB052050F83600C0F30B07B7F531
:1010F000805F01D340F6FF77824800EB052050F86F
:101100003600C0F3806048B33C467E4800EB0520C3
:1011100050F83600C0F3006000B3834890ED000A39
:10112000F2EE080A60EE200A00EE104AB8EE400A1D
:1011300080EE201ABCEEC10A10EE104A90ED000AB3
:10114000F2EE080A60EE200A00EE104AB8EE400AFD
:1011500020EE800ABCEEC00A10EE104A694800EB8F
:10116000052050F83600C0F3007000B300EE107A8E
:10117000B8EE400A6C48D0ED000A80EE201ABCEEB2
:10118000C10A10EE104A5F4800EB052050F8360007
:10119000C0F3006058B1654800680C21B0FBF1F065
:1011A000B4FBF0F461480068B0FBF1F044435548EB
:1011B00000EB052050F83600C0F3407018B300EE85
:1011C000107AB8EE400A5848D0ED000A80EE201A96
:1011D000BCEEC10A10EE104A4A4800EB052050F858
:1011E0003600C0F3006058B1504800680C21B0FBD5
:1011F000F1F0B4FBF0F44D480068B0FBF1F044436B
:101200004A48006804443F4800EB052050F8360087
:10121000C0F3807020B300EE107AB8EE400A424866
:10122000D0ED000A80EE201ABCEEC10A10EE104A82
:10123000344800EB052050F83600C0F3006058B188
:101240003A4800680C21B0FBF1F0B4FBF0F43748E9
:101250000068B0FBF1F044433448006804EB4004FC
:10126000284800EB052050F83600C00F28B300EEE8
:10127000107AB8EE400A2C48D0ED000A80EE201A11
:10128000BCEEC10A10EE104A1E4800EB052050F8D3
:101290003600C0F3006058B1244800680C21B0FB50
:1012A000F1F0B4FBF0F421480068B0FBF1F04443E6
:1012B0001E48006800EB40000444124800EB052083
:1012C00000EBC600406800F0010090B100EE107A1B
:1012D000B8EE400A1448D0ED000A80EE201ABCEEA9
:1012E000C10A10EE104A074800EB052050F83600FE
:1012F0001EE030E0080400200000000000FEAF40C7
:10130000EC080020EC0600200000E04200F07F45E1
:1013100000008C440000A04200002F46000048441A
:1013200000C0DA470000FA45600400205C04002099
:10133000C0F3006058B1FE4800680C21B0FBF1F02A
:10134000B4FBF0F4FA480068B0FBF1F04443F8480D
:10135000006804EB80042046BDEC088BBDE8F081FA
:1013600070B52DED0E8B00244FF6FE70F14908800C
:10137000F14801780020FFF787FD0446EF4908692E
:1013800006F02FF941EC1C0BED48006900EE100A45
:10139000B8EE400A10EE101A084606F01DFB41ECAC
:1013A0001E0B9FEDE80B53EC102B06F02DF941ECD2
:1013B0001D0B53EC1C2B05F08FFF41EC1B0B9FED1D
:1013C000E30B53EC102B05F0DFFE41EC1A0B9FED05
:1013D000E10B53EC102B06F017F941EC190B06F05A
:1013E000D3F8D44918310880DC48D349097850F83B
:1013F0003100C0F34060002862D0CF48017800205F
:10140000FFF721FE0546D648007818B1D448007889
:1014100006284AD1D3480068A8421FD9D14800689D
:10142000401B00EE100AF8EE400A00EE104AB8EE3B
:10143000400A80EE808ACC48006800EE100AB8EEC0
:10144000400A28EE000ABCEEC00A10EE100AC54A97
:101450001268101A81B2002003F054FEC1480068DF
:10146000854237D9BF480068281A00EE100AF8EE06
:10147000400A00EE104AB8EE400A80EE801AB0EE44
:10148000418AB948006800EE100AB8EE400A28EE1A
:10149000000ABCEEC00A10EE100AB24A12681044EC
:1014A00081B2002003F02EFE14E0A3480178002052
:1014B000FFF7C9FD86B23146002003F023FE09E0A4
:1014C0009D4801780020FFF7BEFD86B2314600201E
:1014D00003F018FEA148984A127850F83200C0F381
:1014E0000B31012002F05AFF9F48006806F079F89E
:1014F00041EC1A0B204606F074F841EC1C0B53EC3F
:101500001C2B1FED830B51EC100B05F0E5FE41EC9D
:101510001B0B53EC1A2B06F077F841EC190B06F075
:1015200033F840F6FF710E1A3146022002F036FF02
:101530008B48007818B18A480078062804D18A4878
:101540000068401C8849086087480068A0427CD336
:10155000794801780020FFF776FD824908608048CD
:101560000078062803D1814800787D4908707B48BF
:101570007149097800EBC1004068C0F3400030B108
:1015800077480078794908700220754908707348D7
:101590006949097800EBC1004068C0F3C00080B120
:1015A0008021734803F0B0FF01280AD16C4800780D
:1015B000042806D06A4800786C49087004206849FD
:1015C000087066485C49097800EBC1004068C0F3C8
:1015D000800088B18021664803F096FF60B96048BA
:1015E0000078052808D05E4800786049087005201A
:1015F0005B490870FFF7EEF958484F49097800EB4E
:10160000C1004068C0F3400070B954484A490978A5
:1016100000EBC1004068C0F3C00028B94F484649FC
:10162000097800EBC100406800204F4908604C4831
:10163000007850B9404801780020FFF76EFA3E4923
:1016400008704FF400714A4800E025E003F078FF8D
:1016500042483949097800EBC1004068C0F3C02016
:1016600020B14FF40061424803F06AFF3B48324921
:10167000097800EBC1004068C0F3003020B14FF49E
:1016800080613B4803F05CFF01213A4804F060FEB2
:101690000021384804F01CFE3148007801283ED172
:1016A00035480078401E24490978884237D03248AE
:1016B0000078401E20490870084601780020FFF796
:1016C000C2FC86B23146002003F01CFD4FF40071CD
:1016D000274803F035FF21481749097800EBC1007E
:1016E0004068C0F3C02020B14FF40061204803F0EF
:1016F00027FF1A481049097800EBC1004068C0F381
:10170000003020B14FF48061194803F019FF012126
:10171000184804F01DFE0021164804F0D9FD1048B9
:101720000078032839D114480078401E024925E08A
:101730005C04002010080040290400200804002058
:10174000EC0800200000000000000C400000000039
:101750000000E03F000000000082C440EC060020D2
:101760003D040020500400203404002041040020E7
:101770000004024000200040580400200870084681
:1017800001780020FFF75FFC86B23146002003F0AD
:10179000B9FCFE480078FE490870FE48007860B940
:1017A000FD48007820F00100401CFB490870084605
:1017B000007820F00200801C0870BDEC0E8B70BD1C
:1017C00070B52DED0E8B00244FF6FE70F3490880A6
:1017D000F34801780120FFF757FB0446F1494869B7
:1017E00005F0FFFE41EC1C0BEF49486905F0F9FEDE
:1017F00041EC1E0B1FED2D0B53EC102B05F004FFDD
:1018000041EC1D0B53EC1C2B05F066FD41EC1B0B52
:101810001FED320B53EC102B05F0B6FC41EC1A0B0C
:101820001FED340B53EC102B05F0EEFE41EC190BC1
:1018300005F0AAFED94918310880DC48D849097852
:1018400050F83100C0F34060002862D0D4480178DD
:101850000120FFF7F8FB0546D548007818B1D448B9
:10186000007806284AD1D3480068A8421FD9D14839
:101870000068401B00EE100AF8EE400A00EE104A25
:10188000B8EE400A80EE808ACB48006800EE100A6D
:10189000B8EE400A28EE000ABCEEC00A10EE100AAC
:1018A000C44A1268101A81B2002003F038FCC14803
:1018B0000068854237D9BF480068281A00EE100A30
:1018C000F8EE400A00EE104AB8EE400A80EE801AA8
:1018D000B0EE418AB848006800EE100AB8EE400A3F
:1018E00028EE000ABCEEC00A10EE100AB14A1268D7
:1018F000104481B2002003F012FC14E0A8480178E3
:101900000120FFF7A0FB86B23146002003F007FC60
:1019100009E0A34801780120FFF795FB86B2314624
:10192000002003F0FCFBA1489D4A127850F83200D9
:10193000C0F30B31042002F031FD9F48006805F030
:1019400050FE41EC1A0B204605F04BFE41EC1C0BFF
:1019500053EC1C2B9FED990B51EC100B05F0BCFCCC
:1019600041EC1B0B53EC1A2B05F04EFE41EC190B0E
:1019700005F00AFE40F6FF710E1A3146082002F00B
:101980000DFD8B48007818B189480078062804D1ED
:1019900089480068401C8849086087480068A04260
:1019A0007ED37F4801780120FFF74DFB8149086015
:1019B0007F480078062803D1824800787C49087067
:1019C0007A487749097800EBC1004068C0F34000CD
:1019D00030B1774800787B4908700220744908705C
:1019E00072486F49097800EBC1004068C0F3C0003D
:1019F00080B12021744803F087FD01280AD16C488A
:101A00000078042806D06A4800786E4908700420DF
:101A10006749087065486249097800EBC100406871
:101A2000C0F3800088B12021674803F06DFD60B9E4
:101A30005F480078052808D05D4800786149087043
:101A400005205B490870FEF7E5FF584854490978BE
:101A500000EBC1004068C0F3400070B953485049E2
:101A6000097800EBC1004068C0F3C00028B94F48B6
:101A70004B49097800EBC100406800204E490860DE
:101A80004B48007860B9464801780120FFF745F8D7
:101A90004349087004214D4803F052FD434800E0DB
:101AA00021E03F49097800EBC1004068C0F3C02045
:101AB00018B10821454803F043FD3C4838490978EE
:101AC00000EBC1004068C0F3003020B14FF48051FA
:101AD0003E4803F035FD01213D4804F039FC00216A
:101AE0003B4804F0F5FB3248007801283CD13948E6
:101AF0004078401E2A490978884235D035484078D8
:101B0000401E27490870084601780120FFF79BFA1C
:101B100086B23146002003F002FB04212B4803F07B
:101B20000FFD22481E49097800EBC1004068C0F350
:101B3000C02018B10821254803F002FD1B481849B0
:101B4000097800EBC1004068C0F3003020B14FF4C9
:101B500080511E4803F0F4FC01211D4804F0F8FBFD
:101B600000211B4804F0B4FB11480078032839D148
:101B700018484078401E0A4908700846017801203C
:101B8000FFF761FA86B23146002025E041040020CB
:101B90003D0400202804002005040020100C004013
:101BA0002A04002008040020EC080020EC07002094
:101BB0003E040020540400203804002000000000EF
:101BC00000FEAF404204002000040240000002403A
:101BD000000401405804002003F0A1FAF7480078FF
:101BE000F7490870F748007801280CD1F6480078CA
:101BF00020F00100401CF44908700846007820F0ED
:101C00000200801C0870BDEC0E8B70BD1FB5012159
:101C1000042003F0FEFE01A804F045FB42F6041088
:101C2000ADF80400012002900020ADF80C00ADF8E2
:101C3000060001A9E54804F002FB0121E34804F095
:101C400069FB0121E14804F083FB0121082003F036
:101C5000E0FE01A9DE4804F0F2FA0121DC4804F0BC
:101C600059FB0121DA4804F073FB01221146D748E1
:101C700004F086FF01221146D54804F081FF1E20A2
:101C80008DF8000000208DF801008DF80200012081
:101C90008DF80300684602F022FF32208DF8000024
:101CA00000208DF801008DF8020001208DF803005E
:101CB000684602F014FF00211E20FEF7D5FA00212D
:101CC0003220FEF7D1FAC348C34908600820C3494F
:101CD0000860C3490860C3490860C349086001211E
:101CE000400103F096FE01A804F0DDFAD220ADF821
:101CF00004004FF4A07002900020ADF80C00ADF885
:101D0000060001A9B94804F09AFA0021B74804F086
:101D10001FFB01221146B54804F032FF2D2002F0CE
:101D200088F90121022003F085FE01A804F0BBFA26
:101D3000D220ADF804004FF4207002900020ADF8DE
:101D40000C00ADF8060001A9A94804F078FA0021BA
:101D5000A74804F0FDFA01221146A54804F010FF3F
:101D60002C2002F066F91FBD10B50121A04804F037
:101D70001EFFA0B100219E4804F0EAFA04219D480C
:101D800003F0DCFB08219B4803F0D8FB4FF48051A3
:101D9000984803F0D3FB0121954804F019FF10BDCA
:101DA00010B50121914804F002FFB0B100218F4825
:101DB00004F0CEFA4FF400718F4803F0BFFB4FF4EC
:101DC00000618D4803F0BAFB4FF480618A4803F04C
:101DD000B5FB0121854804F0FBFE10BD10B54FF6A0
:101DE000FE708649088086480078042805D1802145
:101DF000814803F089FB01281AD081480078042823
:101E000016D180217C4803F07FFB88B900207C49F3
:101E100008707C4801780020FEF77FFE7949087041
:101E200076481038008820F0010074491039088085
:101E300073480078052804D180216F4803F064FBC3
:101E4000D8B16F480078052817D180216A4803F07F
:101E50005BFB012811D100206949087069480178AD
:101E60000020FEF75AFE6749087064481038008861
:101E700020F0010061491039088010BD10B54FF6FF
:101E8000FE70614908804E480078042805D1202161
:101E9000594803F039FB01281AD049480078042832
:101EA00016D12021544803F02FFB88B90020444963
:101EB0000870564801780120FEF72FFE534908703C
:101EC00051481038008820F001004F49103908802F
:101ED0003B480078052804D12021474803F014FB33
:101EE000D8B137480078052817D12021424803F09F
:101EF0000BFB012811D100203149087043480178BB
:101F00000120FEF70AFE414908703F48103800885A
:101F100020F001003C491039088010BD10B586B092
:101F2000044601A803F05BFC42F210710298B0FB7A
:101F3000F1F06043059002E00598401E0590059879
:101F40000028F9D106B010BD1CB54FF6FE7030491F
:101F5000088202F0EFFACDE900012E4800781E2831
:101F60006CDA2D4800781E2868DA9DF8000000F031
:101F7000010020B19DF80000C0F34000E0B99DF8D9
:101F8000000000F0010028B922480078401C2149D7
:101F9000087002E000201F4908709DF80000C0F39F
:101FA000400028B91C480078401C1B4908700BE110
:101FB00000201949087007E130E0000042040020C9
:101FC0003E040020280400200504002000080040F2
:101FD000000C00400007FA050CED00E0340400207E
:101FE000380400202C040020300400200020004091
:101FF00000040140000002400004024010040040C0
:102000003D04002029040020101400402A04002070
:10201000001000407E0400207F0400200020FE49C4
:102020000870FE4908700021FD4804F051F9FC4891
:10203000008820F00100FA490880C5E0F6480078E1
:102040001E2803D0F54800781E28B0D1002002F0E9
:1020500040F84FF4FA70FFF761FF4FF6FF7002F09F
:1020600038F84FF4FA70FFF759FF002002F031F80A
:102070004FF4FA70FFF752FF4FF6FF7002F029F8A5
:102080004FF4FA70FFF74AFF002002F022F84FF4F5
:10209000FA70FFF743FF4FF6FF7002F01AF80021C5
:1020A000DF4804F015F9DE48008820F00100DC4923
:1020B0000880D94800781E2831D10020D949C8703D
:1020C000087148710846406820F4007000F50070FF
:1020D00048600846006820F0806000F18060086079
:1020E000002413E0CF4800EBC40102461068526898
:1020F00008604A60CB4904F1100001EBC0000A46B9
:102100001168526801604260601CC4B2102CE9DBA7
:102110000220C54908700020C449087039E0BF4852
:1021200000781E2835D10021BE4880F8031180F8C0
:10213000041180F80511D0F8040120F4007000F5B6
:102140000070B849C1F804010846D0F8000120F039
:10215000806000F18060C1F80001002411E0B44803
:1021600000EBC401026840680A604860B04804F1AE
:10217000100100EBC101026840680A604860601C01
:10218000C4B2102CEBDB0220AA4908700020AA4937
:1021900008700020A0490870A0490870A74800787E
:1021A000062803D0A5480078042802D10020A349BE
:1021B0000870A2480078072803D0A04800780528B6
:1021C00002D101209D4908701CBD1CB501210220CF
:1021D00003F0D6FB0020009001904FF46060009067
:1021E00001208DF8040000208DF806008DF807000E
:1021F00003208DF805006946914803F023F94FF458
:1022000000718F4803F09AF94FF400618C4803F095
:1022100095F94FF480618A4803F090F9012108464E
:1022200003F0AEFB00200090019041F20C00009002
:1022300001208DF8040000208DF806008DF80700BD
:1022400003208DF8050069467E4803F0FBF8042161
:102250007C4803F073F908217A4803F06FF94FF4D2
:102260008051784803F06AF91CBD1CB5012108466D
:1022700003F086FBC020009003208DF805000120AC
:102280008DF8040000208DF8060069466D4803F0C3
:10229000D9F81CBD00B587B003A802F0DFFE01210C
:1022A000084603F06DFB3020019003208DF80800F4
:1022B00001A9644803F0C6F80121480703F0A9FB0F
:1022C00000200390022006900020049002F0A4FE5B
:1022D00003A9002002F0ABFE03A9102002F0A7FE24
:1022E0000121002002F0C0FE0121102002F0BCFEFE
:1022F0000021084602F006FF0021084602F00FFF09
:1023000007B000BD2DE9FC4104460026002702F07D
:10231000D1FB08B11F2500E00F254848007810B90F
:1023200042480678002745480078012802D14248F3
:102330000678012741480078022802D142480678F1
:1023400000273E480078032802D13F48067801273D
:102350003A480078042802D13B48067800273748DD
:102360000078052802D138480678012733480078DC
:10237000062802D13448067800273048007807281C
:1023800002D1314806780127264800EB072000EBF0
:10239000C60108684968CDE900016078C0F3001003
:1023A000C8B9009820F0805000F18050009000984B
:1023B00020F000500090009820F08040009000989D
:1023C00020F000400090019820F00100019000985A
:1023D00020F0806000906078C0F34010C8B9009889
:1023E00020F080500090009820F0005000F1005044
:1023F0000090009820F080400090009820F000406D
:102400000090019820F001000190009820F0806079
:10241000009060781AE000007E0400207F04002015
:1024200000100040EC0600203D040020290400209C
:10243000EC0700203E0400202A040020280400208D
:1024400000040240000002403C040020C0F3801061
:10245000C8B9009820F080500090009820F00050FB
:102460000090009820F0804000F18040009000989B
:1024700020F000400090019820F0010001900098A9
:1024800020F0806000906078C009C8B9009820F002
:1024900080500090009820F000500090009820F0AC
:1024A00080400090009820F0004000F10040009033
:1024B000019820F001000190009820F080600090C9
:1024C000A07800F00100C0B9009820F08050009082
:1024D000009820F000500090009820F0804000907C
:1024E000009820F000400090019820F00100401C6E
:1024F0000190009820F080600090607800F001006A
:10250000C8B9009820F080500090009820F000504A
:102510000090009820F080400090009820F000404B
:102520000090019820F001000190009820F0806058
:1025300000F180600090E078C0F3001028B90198A5
:1025400020F4006000F500600190E078C0F34010D6
:1025500018B9019820F400600190E078C0F3801071
:1025600028B9019820F4805000F580500190E0785F
:10257000C00918B9019820F4805001902078C0F368
:10258000001028B9009820F0807000F18070009051
:102590002078C0F3401018B9009820F080700090A7
:1025A0002078C0F3801028B9009820F0007000F166
:1025B000007000902078C00918B9009820F00070D1
:1025C00000906078C0F3800028B9009820F0006087
:1025D00000F1006000906078C0F3C00018B9009866
:1025E00020F000600090A078C0F34000F0BB01989C
:1025F00020F00200801C0190019820F0080001905A
:10260000019820F004000190FE48007818B1FD48C0
:102610000078022806D1FC480078052802D1022063
:10262000F9490870F7480078012803D0F548007888
:10263000032806D1F5480078052802D10220F34985
:102640000870F048007818B1EE480078022806D1EA
:10265000ED480078042802D10220EB490870E948CF
:102660000078012805D0E748007800E008E003285A
:1026700006D1E6480078042802D10220E349087018
:10268000A078C0F3800018B9019820F002000190F2
:10269000A078C0F3C00058BB019820F00400001DD2
:1026A0000190019820F002000190019820F00800AC
:1026B0000190D448007818B1D2480078022807D198
:1026C000D1480078042803D1D1480078CE49087059
:1026D000CC480078012803D0CA480078032807D1E5
:1026E000CA480078042803D1CA480078C74908704E
:1026F000A078C0F3001010BB019820F004000190F6
:10270000C048007818B1BF480078022807D1BE48F9
:102710000078052803D1BE480078BB490870B94845
:102720000078012803D0B7480078032807D1B748BC
:102730000078052803D1B7480078B4490870A0781C
:10274000C0F3401058BB019820F0080008300190F9
:10275000019820F002000190019820F004000190FF
:10276000A848007818B1A7480078022807D1A648E1
:102770000078052803D1A6480078A3490870A1482D
:102780000078012803D09F480078032807D19F488C
:102790000078052803D19F4800789C490870A078EC
:1027A000C0F3801010BB019820F0080001909548FC
:1027B000007818B193480078022807D19248007831
:1027C000042803D1924800788F4908708D4800781A
:1027D000012803D08B480078032807D18B48007864
:1027E000042803D18B48007888490870A078C00974
:1027F00040B9019820F0100010300190019820F0AD
:1028000020000190A07900F0010018B9019820F093
:1028100010000190A079C0F3400040B9019820F069
:10282000200020300190019820F010000190A07944
:10283000C0F3800018B9019820F0200001902079A1
:1028400000F0010028B9019820F4806000F5806054
:1028500001902079C0F3400018B9019820F48060FD
:102860000190A079C0F3C00080B9019820F0400029
:1028700040300190019820F080000190019820F4F0
:1028800080700190019820F400700190A079C0F34D
:10289000001080B9019820F040000190019820F0CC
:1028A000800080300190019820F4807001900198A0
:1028B00020F400700190A079C0F3401088B901980D
:1028C00020F040000190019820F0800001900198D4
:1028D00020F4807000F580700190019820F4007061
:1028E0000190A079C0F3801088B9019820F04000D1
:1028F0000190019820F080000190019820F48070F0
:102900000190019820F4007000F50070019020788B
:1029100000F0010090BBFEF79DF83A4800780628C9
:1029200014D13D480078FEF7FBF901203B490870BF
:102930000020344908703448007835490870002078
:102940003749087002203049087048E02D48007867
:10295000072814D130480078FEF7E2F901202F490A
:10296000087028490870294800782A490870002012
:102970002C49087002202549087030E02EE02148DB
:10298000007898B906201F49087000202249087075
:102990002548007820F00200801C23490870084672
:1029A000007820F00100401C087018E015480078FD
:1029B000012813D107201349087000201649087018
:1029C0001948007820F00200801C1749087008465A
:1029D000007820F00100401C087000E000BF207863
:1029E000C0F3400068B9FEF735F8064800780428BF
:1029F0001CD109480078FEF75BF9002001490870F6
:102A000050E04EE0280400203D0400203E04002059
:102A100041040020420400203C0400204704002020
:102A2000290400202A04002005040020FE48007824
:102A3000052807D1FD480078FEF73AF90120FA4948
:102A400008702FE0F848007898B90420F64908701B
:102A50000020F6490870F648007820F00200801C3B
:102A6000F34908700846007820F00100401C087007
:102A700018E0ED480078012813D10520EA490870D4
:102A80000020EA490870EA48007820F00200801C23
:102A9000E74908700846007820F00100401C0870E3
:102AA00000E000BF2078C0F3800000287ED1DE481F
:102AB000007828B90220DC4908700120DB49087041
:102AC000D9480078012805D10320D7490870012092
:102AD000D6490870D4480078022803D0D24800783C
:102AE00003285AD1D148007800282EDDD14800882B
:102AF00028B9CE480078401ECC49087012E0CD4875
:102B00000088B0F5FA7F0DDBCA480088B0F5167F63
:102B100008DD4FF4FA70C7490880C4480078401EA9
:102B2000C2490870C3480088401CC2490880C04898
:102B3000007820F00100401CBD490870084600786C
:102B400020F00200801C087027E0BA48008810B905
:102B5000B64805700FE0B7480088B0F5FA7F0ADB89
:102B6000B4480088B0F5167F05DD4FF4FA70B1491E
:102B70000880AE480570AF480088401CAD49088009
:102B8000AB48007820F00100401CA94908700846B5
:102B9000007820F00200801C0870A3480078042808
:102BA0000DD0A1480078052809D000E035E09E4806
:102BB0000078062803D09C480078072830D19B482D
:102BC000007800280CDD99480078401E974908706D
:102BD0009748007820F00200801C954908701FE09B
:102BE00001F068FF70B90F20904908709248007892
:102BF000012803D102209049087006E001208E4987
:102C0000087002E01F20894908708948007820F088
:102C10000200801C8649087002E000208549088077
:102C20002078C0F3C00000287ED17F48007820B90A
:102C300002207D4908707D4805707B480078012896
:102C400004D10320784908707848057076480078E8
:102C5000022803D07448007803285CD173480078B8
:102C6000A8422EDA7548008828B970480078401CC0
:102C70006E49087012E071480088B0F5FA7F0DDBEC
:102C80006E480088B0F5167F08DD4FF4FA706B4986
:102C9000088066480078401C6449087067480088CE
:102CA000401C664908806248007820F00100401C02
:102CB0005F4908700846007820F00200801C087008
:102CC00029E05E48008818B900205849087010E0D3
:102CD0005A480088B0F5FA7F0BDB58480088B0F5F9
:102CE000167F06DD4FF4FA705449088000204F49E2
:102CF000087052480088401C504908804C480078B1
:102D000020F00100401C4A4908700846007820F075
:102D10000200801C08704448007804280DD0424806
:102D20000078052809D000E035E03F480078062803
:102D300003D03D480078072830D13C480078A842AD
:102D40000CDA3A480078401C384908703848007856
:102D500020F00200801C364908701FE001F0AAFE36
:102D600070B900203149087033480078012803D138
:102D700002203149087006E001202F49087002E066
:102D800000202A4908702A48007820F00200801CA0
:102D90002749087002E000202849088001202849BE
:102DA000087028480078B8B96079C0F3800028B965
:102DB0001D48007810B100201B4908702079C0F32D
:102DC000801048B918480078012805D0012016491C
:102DD000087000201A4908706079C0F34000F8B903
:102DE0001948007801281BD00020184908701048A5
:102DF000007820F00100401C0D490870084600785A
:102E000020F00200801C08700F480078042803D0CE
:102E10000D480078052803D10D4800780A4908704C
:102E20002079C0F3401015E0280400203C04002065
:102E3000050400208004002070040020820400208B
:102E400046040020470400203D04002029040020FF
:102E500041040020F8B9FE48007801281BD000206A
:102E6000FC490870FC48007820F00100401CFA4939
:102E700008700846007820F00200801C0870F448B2
:102E80000078042803D0F2480078052803D1F348DD
:102E90000078EF4908702079C0F30010F0B3F048D3
:102EA0000078D8BB0120EE490870EE480078401E3B
:102EB000ED490870ED48007860B9E748007820F0E7
:102EC0000100401CE44908700846007820F0020028
:102ED000801C08704FF40071E54802F031FBE548B2
:102EE000E149097800EBC1004068C0F3C02020B17F
:102EF0004FF40061DE4802F023FBDE48DA4909782E
:102F000000EBC1004068C0F3003020B14FF4806195
:102F1000D74802F015FB0121D74800E005E003F097
:102F200017FA0021D44803F0D3F92079C0F3001038
:102F300010B90020CA4908706079C0F30010E0BBE6
:102F4000C8480078401EC8490870C848007860B971
:102F5000C148007820F00100401CBF4908700846B5
:102F6000007820F00200801C08704FF40071C04807
:102F700002F0E6FABF48BC49097800EBC10040689E
:102F8000C0F3C02020B14FF40061B94802F0D8FA74
:102F9000B848B549097800EBC1004068C0F300307B
:102FA00020B14FF48061B24802F0CAFA0121B24860
:102FB00003F0CEF90021B04800E001E003F088F909
:102FC000E078C0F3C000E8B3AC480078D0BB012083
:102FD000AA490870A3484078401E9E490870A3483B
:102FE000007801280CD19C48007820F00100401C9A
:102FF000994908700846007820F00200801C08708B
:1030000004219F4802F09CFA9A489749097800EBFE
:10301000C1004068C0F3C02018B10821984802F0F0
:103020008FFA94489049097800EBC1004068C0F3DA
:10303000003020B14FF48051914802F081FA012113
:10304000904800E005E003F083F900218D4803F08B
:103050003FF9E078C0F3C00010B90020874908703C
:10306000E078C0F34000E0BB7E484078401E7949DC
:1030700008707E48007801280CD17748007820F04D
:103080000100401C744908700846007820F00200D6
:10309000801C087004217A4802F052FA7A486D497F
:1030A000097800EBC1004068C0F3C02018B10821C6
:1030B000734802F045FA74486649097800EBC1008C
:1030C0004068C0F3003020B14FF480516C4802F0EA
:1030D00037FA01216B4803F03BF90021694803F0FE
:1030E000F7F86079C0F34010A8B968480078012863
:1030F00029D0664800786649087001206349087045
:103100005548007820F00100401C53490870002009
:103110006049087017E05D480078012813D15C48C9
:1031200000785A4908704C48007820F00100401C93
:10313000494908700846007820F00200801C087099
:10314000002054490870E078C0F38000A8B94048D6
:103150000078012829D03E480078404908700120B5
:103160003B4908703C48007820F00100401C3A4977
:10317000087000204749087017E03548007801289A
:1031800013D136480078324908703348007820F06F
:103190000100401C304908700846007820F0020009
:1031A000801C087000203B490870607900F0010025
:1031B000F0BB39480078401C374908700846007851
:1031C0000A286FD13148007801286BD02F48007849
:1031D000062811D1244801780020FDF734FF2F493B
:1031E0000860214801780020FDF797FC1E4908700F
:1031F00000202B49086012E024480078052807D0F9
:1032000022480078042803D020480078204908701C
:10321000154801780020FDF780FC1349087006204E
:103220001A4908704FF40071114802F089F900E062
:1032300050E010480C49097800EBC1004068C0F329
:10324000C02020B14FF40061094802F079F92AE06A
:103250003E0400202A04002005040020420400202F
:1032600071040020580400202904002028040020B4
:1032700000040240EC060020002000407204002000
:103280000000024000040140EC0700203D04002043
:1032900041040020460400207C040020500400204B
:1032A0003404002019E0FE48FE49097800EBC10013
:1032B0004068C0F3003020B14FF48061FA4802F05A
:1032C0003FF90121F94803F043F80021F74802F0E3
:1032D000FFFF02E00020F64908706079C0F3C000EB
:1032E000F0BBF4480078401CF249087008460078AA
:1032F0000A285CD1F0480078012858D0EE480078C0
:10330000062811D1ED4801780120FDF79CFEEC491B
:103310000860EA4801780120FDF7FFFBE7490870E3
:103320000020E849086012E0E3480078052807D04B
:10333000E1480078042803D0DF480078E2490870AB
:10334000DE4801780120FDF7E8FBDC490870062023
:10335000D94908700421DD4802F0F2F8DC4800E0A9
:1033600022E0D649097800EBC1004068C0F3C020D4
:1033700018B10821D54802F0E3F8D548CF490978BB
:1033800000EBC1004068C0F3003020B14FF4805121
:10339000CE4802F0D5F80121CE4802F0D9FF002135
:1033A000CC4802F095FF02E00020C2490870CA48EC
:1033B000007880B9BA4800EB072000EBC600DDE9D1
:1033C000001201604260C548007820F00100401CF6
:1033D000C249087002E00020BF4908700120BDE822
:1033E000FC81F8B500250026FF208DF800008DF83F
:1033F00001008DF802008DF80300B948007818B17B
:10340000B7480078062805D19DF8000020F0040098
:103410008DF80000B2480078012807D0B048007845
:10342000042803D0AE480078052805D19DF8000097
:1034300020F002008DF80000A9480078022805D18C
:103440009DF8000020F001008DF800009A480078F7
:1034500018B199480078062805D19DF8000020F0A1
:1034600020008DF8000094480078012807D0924889
:103470000078042803D090480078052805D19DF8ED
:10348000000020F010008DF800008B480078022822
:1034900005D19DF8000020F008008DF8000091484B
:1034A000007810B97F48057800268E4800780128FA
:1034B00002D18248057801268A480078022802D184
:1034C00089480578002687480078032802D1864875
:1034D00005780126724800EB062000EBC504206841
:1034E0006FEA90609DF8031060F382018DF803107D
:1034F00020686FEA10709DF8031060F304118DF8D6
:10350000031020686FEA50709DF8031060F34511B6
:103510008DF8031020686FEA90709DF8031060F337
:1035200086118DF8031020686FEAD0709DF80310A3
:1035300060F3C7118DF803102079C0439DF8021085
:1035400060F300018DF80210A0886FEAD0209DF88A
:10355000001060F386118DF80010A0886FEA10301B
:103560009DF8001060F3C7118DF8001020796FEA04
:1035700010109DF8021060F304118DF802102079EC
:103580006FEA50109DF8021060F345118DF802109B
:1035900020686FEAD0609DF8031060F3C3018DF8D6
:1035A000031020686FEA50609DF8031060F341013A
:1035B0008DF8031020686FEA10609DF8031060F327
:1035C00000018DF8031020796FEA90109DF8021029
:1035D00060F386118DF8021020796FEAD0109DF803
:1035E000021060F3C7118DF80210A0886FEA102056
:1035F0009DF8011060F300018DF80110A0886FEABA
:1036000050209DF8011060F341018DF80110A08851
:103610006FEA90209DF8011060F382018DF801108F
:1036200020796FEA50009DF8021060F341018DF897
:10363000021020796FEA90009DF8021060F3820179
:103640008DF8021020796FEAD0009DF8021060F327
:10365000C3018DF802102348007804280BD02148BC
:103660000078052807D01F480078062803D01D4899
:10367000007807287ED1FF208DF800008DF801002A
:103680008DF802008DF8030016480078042803D056
:1036900014480078052852D19DF8000026E000006B
:1036A000EC06002029040020000402400020004015
:1036B0007C0400207D0400203E0400202A04002019
:1036C000540400203804002042040020000002407E
:1036D000EC070020000401404704002005040020FE
:1036E0003D040020280400203C04002020F01000AD
:1036F00010308DF80000FE480068401CFC4908604E
:103700000846006840F2DC51884206D29DF800006D
:1037100020F002008DF8000045E0F548006840F612
:10372000B831884207D29DF8000020F00200801CCA
:103730008DF8000037E00020ED49086033E0ED48E7
:103740000078062803D0EB48007807282BD19DF895
:10375000000020F00200801C8DF80000E6480068A0
:10376000401CE54908600846006840F2DC51884288
:1037700008D200E02BE09DF8000020F010008DF84A
:10378000000010E0DC48006840F6B831884207D2FB
:103790009DF8000020F0100010308DF8000002E0CD
:1037A0000020D549086001F085F980B9D348007838
:1037B000012806D19DF8000020F040008DF800009F
:1037C00005E09DF8000020F080008DF800006846BC
:1037D00000F01EFDC748007818B1C64800780228DE
:1037E00007D14021C64801F0A9FE8021C44801F05C
:1037F000A7FEC0480078012803D0BE4800780328FF
:1038000007D18021BE4801F099FE4021BC4801F05B
:1038100097FEF8BD10B5B748007818B9B9480078D8
:1038200000F06BFCB3480078012803D1B64800785B
:1038300000F063FCAF480078022813D0AD48007850
:1038400003280FD0AB48007804280BD0A948007893
:10385000052807D0A7480078062803D0A548007897
:10386000072803D1A948007800F047FC10BD1FB518
:10387000FF208DF804008DF805008DF806008DF806
:10388000070080219E4801F05BFE40219C4801F02A
:1038900057FE8DE0641CB4F5FA6F28D29DF8040041
:1038A00020F00400001D8DF804009DF8040020F0B5
:1038B0000200801C8DF804009DF8040020F0010037
:1038C0008DF804009DF8040020F0200020308DF8D1
:1038D00004009DF8040020F0100010308DF8040062
:1038E0009DF8040020F008008DF8040059E0B4F5BC
:1038F0007A6F28D29DF8040020F004008DF80400AF
:103900009DF8040020F00200801C8DF804009DF852
:10391000040020F00100401C8DF804009DF8040014
:1039200020F020008DF804009DF8040020F0100025
:1039300010308DF804009DF8040020F008000830D5
:103940008DF804002DE041F27070844228D29DF879
:10395000040020F00400001D8DF804009DF8040010
:1039600020F002008DF804009DF8040020F0010012
:10397000401C8DF804009DF8040020F02000203049
:103980008DF804009DF8040020F010008DF804006C
:103990009DF8040020F0080008308DF8040000E0D5
:1039A000002401A800F034FC00F0C4FDCDE90201C0
:1039B0009DF80D00C0F3C00000287FF46BAF002419
:1039C0000FE0534850F82400524941F824000846BB
:1039D00050F82400642803D240F6FF7041F8240018
:1039E000641C082CEDD3FCF74DFF202249494FF40D
:1039F000484000F06EFFFCF7A3FEA3E0641CB4F5A2
:103A0000FA6F28D29DF8040020F00400001D8DF804
:103A100004009DF8040020F00200801C8DF80400D2
:103A20009DF8040020F001008DF804009DF80400CA
:103A300020F0200020308DF804009DF8040020F0D4
:103A4000100010308DF804009DF8040020F00800EC
:103A50008DF804006FE0B4F57A6F28D29DF8040069
:103A600020F004008DF804009DF8040020F002000E
:103A7000801C8DF804009DF8040020F00100401C1B
:103A80008DF804009DF8040020F020008DF804005B
:103A90009DF8040020F0100010308DF804009DF80F
:103AA000040020F0080008308DF8040043E041F2E3
:103AB000707084423ED29DF8040020F00400001D86
:103AC0008DF804009DF8040020F002008DF8040039
:103AD0009DF8040020F00100401C8DF804009DF8C2
:103AE000040020F0200020308DF8040014E00000D5
:103AF00074040020280400207804002070040020B2
:103B000000000240290400202A0400203C04002078
:103B1000EC080020080400209DF8040020F01000AC
:103B20008DF804009DF8040020F0080008308DF89E
:103B3000040000E0002401A800F06AFB00F0FAFC99
:103B4000CDE902019DF80D00C0F3C00000283FF44C
:103B500055AF1FBD2DED048B8CB0002700200390C6
:103B60000290FE4908700846007820F00100401CD1
:103B700008700846007820F00200801C0870F848A1
:103B8000406820F080008030F549486008460068B1
:103B900020F0806000F18060086001F580700A46C6
:103BA0001168526801604260012625E0EC4800EB94
:103BB000C600EB4A1168526801604260E94800EBB8
:103BC000C600E74A1168526801604260E44906F1A4
:103BD000100001EBC0000A461168526801604260A3
:103BE000E04806F1100100EBC100DD4A116852689F
:103BF00001604260701CC6B20F2ED7DDFEF7E5FAF9
:103C0000FEF733FB00F0F6FE00F00AFF0190D64805
:103C10009DF80410017000F01BFA4FF6FF7000F0E1
:103C200058FA4FF47A70FEF779F9CF4909784FF6D0
:103C3000F07241EA020000F04CFA4FF47A70FEF79D
:103C40006DF900F046FD00F08DFAFF208DF824009C
:103C50008DF825008DF826008DF827009DF82400AA
:103C600020F001008DF824009DF8240020F00800C9
:103C70008DF8240009A800F0CBFA00F0A1FB00F0B9
:103C800059FCCDE90601B949B948CDE9041000F065
:103C900006FB00F06BFC002000F0DCFCFCF750FDA4
:103CA000FDF7B4FFFCF7FCFDFEF7F4FA00F0ECFEC4
:103CB0000220B0490870B049087000F03BFCDDE913
:103CC0000601CDE90A019DF82D0000F0010010B9B0
:103CD000FFF7CDFD14E02022A8494FF4484000F042
:103CE00058FE00250AE0A54850F82500642804D2B3
:103CF00040F6FF70A14941F825006D1C082DF2DB4C
:103D00007DE100F08DFE019097489DF80410017050
:103D10000078C0F3400048B140F29910984908601B
:103D2000B2EE040A974880ED000A17E08E4800784A
:103D300000F0010048B140F2EB10914908609FED9E
:103D4000920A904880ED000A08E040F233308C4936
:103D50000860B1EE040A8B4880ED000A1FB900F03C
:103D6000E9FBCDE90601022F44D100F0E3FBDDE9D8
:103D7000062342404B401A433CD1DDE90601CDE920
:103D80000A0182480078042825D080480078052858
:103D900021D07E48007806281DD07C48007807286E
:103DA00019D0DDE90432DDE90610594050400143E5
:103DB00009D19DF82800C0F3C00020B19DF828006B
:103DC000C0F38000B0B90AA8FEF79CFADDE906014D
:103DD000CDE904010EE0DDE90432DDE906105940C9
:103DE0005040014306D00AA8FEF78CFADDE906012F
:103DF000CDE90401781CC7B2022F00DD0027574827
:103E0000007800F00100F0B1FFF7EBFA53480078BA
:103E100020F00100514908705C48007804280BD05C
:103E20005A480078052807D058480078062803D05B
:103E300056480078072806D14848007820F001004D
:103E4000401C4649087045480078C0F3400038B12E
:103E5000FFF7E0FC4148007820F002003F4908707D
:103E60000024C9E000F026FE10B14FF01F0808E062
:103E70004FF00F084648005D102802DD012044493C
:103E800008550020039002904148005D41490855C3
:103E90003F48015D08F1010081420DDA3C48005DB8
:103EA000A11D364A52F82110484308F10101B0FB28
:103EB000F1F0143080B203903548005D01280EDD2A
:103EC0003348005D401EA11D2C4A52F82110484382
:103ED00008F10101B0FBF1F0143880B202904FF00C
:103EE000000A002565E0FCB92B488069C0EB003072
:103EF00022498969B0FBF1FB584603F072FB41ECA3
:103F0000190B9FED260B53EC102B03F0E5F941EC58
:103F1000180B03F039FB1FFA80F9B9F5805F01DB5C
:103F200040F6FF79CA4443E01B48C069C0EB00304B
:103F30001249C969B0FBF1FB584603F052FB41EC52
:103F4000190B9FED160B53EC102B03F0C5F941EC48
:103F5000180B03F019FB1FFA80F923E00504002079
:103F6000EC060020EC0700204C040020FFFDFFF7CA
:103F700067BF7F003D0400203E04002008040020AD
:103F80005C04002060040020F85305412804002050
:103F9000580400205A040020EC080020AE47E17AC3
:103FA00014AEF73FB9F5805F01DB40F6FF79CA44F4
:103FB0006D1C0A2D97DB2448015D08F10100814248
:103FC0000ADA0A209AFBF0F10398814204DD1E48C8
:103FD000005D401C1C4908551B48005D01280ADD96
:103FE0000A209AFBF0F10298814204DA1648005D3B
:103FF000401E15490855641C022CFFF633AF80E6BD
:1040000030B585B00446684601F0E9FB0F4A02234B
:10401000019D2846002102F0DFFFA0FB040104906F
:1040200002E00498401E049004980028F9D105B0DD
:1040300030BD00F01F02012191404209920002F1BF
:10404000E022C2F8001170475804002000E40B542D
:104050001CB50121042001F093FC00200090019088
:104060004FF46070009003208DF8050001208DF85A
:10407000040000208DF806006946394801F0E2F995
:104080001CBD70B50446254600261AE005F08000E8
:10409000002805DD4FF48071314801F04FFA04E04B
:1040A0004FF480712E4801F04BFA80212C4801F02A
:1040B00047FA80212A4801F041FA6806050E701C73
:1040C000C6B2082EE2DB4FF48071254801F038FAC1
:1040D00070BD10B50446C4F30720FFF7D2FFE0B26D
:1040E000FFF7CFFF4FF400711D4801F029FA4FF49C
:1040F00000711B4801F022FA10BD2DE9F041054680
:104100004FF0FF3424F00104002604E0640044F082
:104110000104701CC6B2AE42F8D300F0CBFC18B953
:10412000A0B2FFF7D6FF19E0270EC4F307484046B8
:10413000FFF7A7FF3846FFF7A4FFC4F30720FFF7F8
:10414000A0FFE0B2FFF79DFF4FF40071044801F0BB
:10415000F7F94FF40071024801F0F0F9BDE8F08181
:10416000000802401CB50121042001F009FC0020D8
:10417000009001907020009003208DF80500012030
:104180008DF8040000208DF8060069462C4801F0E7
:1041900059F91CBD70B504462546002618E005F007
:1041A0008000002804DD2021254801F0C7F903E044
:1041B0002021234801F0C4F91021214801F0C0F961
:1041C00010211F4801F0BAF96806050E701CC6B22E
:1041D000082EE4DB20211A4801F0B2F970BD10B5B9
:1041E0000446E0B2FFF7D6FFC4F30720FFF7D2FF83
:1041F000C4F30740FFF7CEFF200EFFF7CBFF4021AF
:104200000F4801F09DF940210D4801F097F910BDCC
:1042100010B504462078FFF7BDFF6078FFF7BAFFBE
:10422000A078FFF7B7FFE078FFF7B4FF402104481C
:1042300001F086F94021024801F080F910BD00002C
:104240000008024010B5044621465B4801F088FE94
:1042500000BF8021584801F0BAFE0128F9D010BDF6
:1042600070B506460C4615464FF48051534801F090
:1042700067F93046FFF7E6FF2046FFF7E3FF2846E1
:10428000FFF7E0FF00BF80214B4801F0A0FE0128AE
:10429000F9D04FF48051494801F050F970BD00B594
:1042A00087B00121022001F06BFB05220D2143485C
:1042B00001F053F905220F21404801F04EF94FF467
:1042C0002040059002208DF8180000208DF81A007B
:1042D0008DF81B0003208DF8190005A9374801F05F
:1042E000B1F84FF48050059001208DF8180000209F
:1042F0008DF81A0001208DF81B0003208DF819009D
:1043000005A92E4801F09EF80121880301F081FBE8
:10431000294801F075FC684601F08BFD4FF48040A0
:10432000ADF800000020ADF80C004FF48270ADF83D
:1043300002000820ADF804000220ADF806000020BD
:10434000ADF80800ADF80E004FF40070ADF80A00AB
:104350006946194801F0A0FC0121174801F07FFDD2
:104360004FF48071144801F0A9FD0022114603208A
:10437000FFF776FF002211460220FFF771FF0022AF
:1043800002210520FFF76CFF0A20FDF7C7FD002280
:1043900011460520FFF764FF07B000BD70B5054664
:1043A0000C4623071A0E2301C3F3072145F0300002
:1043B000FFF756FF70BD00000038004000040240C7
:1043C0001FB50121042001F0DBFA002002900390C8
:1043D0000E20029001208DF80C0000208DF80E00B8
:1043E0008DF80F0003208DF80D0002A95E4801F042
:1043F00029F80020009001900120009000208DF805
:1044000004006946584801F01DF80821564801F09B
:1044100095F80421544801F093F80221524801F024
:104420008FF81FBD10B504214F4801F089F8022113
:104430004D4801F085F808214B4801F081F8012032
:10444000FBF722FF0821484801F078F810BD70B54D
:10445000002400250121444801F056F8012801D12B
:1044600044F001040221404801F068F8002519E0F9
:1044700002213D4801F064F80120FBF705FF6006CA
:10448000040E0121384801F03FF8012801D144F021
:1044900001040221344801F051F80120FBF7F4FE39
:1044A000681CC5B2072DE3DB02212F4801F048F854
:1044B000204670BD08B500200090FFF7C8FF8DF8BA
:1044C0000000FFF7C4FF8DF80100FFF7C0FF8DF873
:1044D0000200FFF7BCFF8DF803009DF80300000603
:1044E0009DF8021040EA01409DF8011040EA0120C9
:1044F0009DF80010084308BD08B500200090FFF7A4
:10450000A6FF8DF80000FFF7A2FF8DF80100FFF76E
:104510009EFF8DF802009DF8030000069DF8021032
:1045200040EA01409DF8011040EA01209DF800108A
:10453000084308BD70B504210B4801F001F80A20BA
:10454000FBF7A2FEFFF76EFFFFF7B4FF0546FFF78C
:10455000D3FF04460421044800F0F0FF0020014688
:104560002843214370BD0000000802401CB5012112
:10457000042001F005FA0020009001904FF4604003
:10458000009000208DF8050001208DF80400002027
:104590008DF8060001208DF807006946334800F0C9
:1045A00051FF1CBD10B50146002219E001F0800347
:1045B000002B05DD4FF480432C4C1834238004E09D
:1045C0004FF48043294C1A3423804FF40053274C76
:1045D0001A342380A41E23804B06190E531CDAB212
:1045E000082AE3DB4FF48043204C1A34238010BDAB
:1045F00030B504460D46E8B2FFF7D4FF4FF07F42D6
:1046000004EA02010022090E41EA0221C8B2FFF7C2
:10461000C9FFE0B2FFF7C6FF4FF47F4204EA020190
:104620000022090A41EA0261C8B2FFF7BBFF4FF45A
:104630007F0204EA02010022090C41EA0241C8B2E9
:10464000FFF7B0FF4FF4004008491A310880891E77
:10465000088030BD10B50446054800EBC400D0E921
:1046600000211046FFF7C4FF10BD00000008024003
:104670008804002010B5044600BF0221DA4801F08A
:10468000A6FC0028F9D02146D74801F069FC00BFFC
:104690000121D54801F09BFC0028F9D0D24801F057
:1046A0005CFC10BD10B500BF0221CF4801F08FFCAB
:1046B0000028F9D00021CC4801F052FC00BF0121B4
:1046C000C94801F084FC0028F9D0C74801F045FC36
:1046D00010BD00B587B00121042001F051F905A8F3
:1046E00000F0F8FE4FF4E050059002208DF818001D
:1046F00000208DF81A0001208DF81B0002208DF893
:10470000190005A9B94800F09DFE0121082001F01B
:1047100037F905A800F0DEFE0420059001208DF891
:10472000180000208DF81A0001208DF81B000320CE
:104730008DF8190005A9AE4800F084FE06220A2172
:10474000AA4800F00AFF06220B21A84800F005FF46
:1047500006220C21A54800F000FF0421A44800F027
:10476000EDFE0121C80301F054F99F4801F048FA19
:10477000684601F05EFB0020ADF800001020ADF8A7
:104780000C004FF48270ADF802000020ADF8040078
:104790000220ADF806000120ADF808000020ADF8B9
:1047A0000E004FF40070ADF80A0069468E4801F023
:1047B00073FA01218C4801F052FB4FF480718A4852
:1047C00001F07CFB07B000BD10B50024042188482F
:1047D00000F0B6FE0520FFF74DFF0220FFF710FCAA
:1047E000FFF760FFC4B2C820FFF70AFC042180482D
:1047F00000F0A4FE204610BD10B5044604217C48FC
:1048000000F09EFE0120FFF735FF0220FFF7F8FBC6
:104810002046FFF72FFFC820FFF7F2FB0421744862
:1048200000F08CFE10BD10B50421714800F088FE28
:104830000620FFF71FFFC820FFF7E2FB04216C48AA
:1048400000F07CFE10BD10B50421694800F078FE30
:104850000420FFF70FFFC820FFF7D2FB04216448B4
:1048600000F06CFE10BD70B504460D460421604892
:1048700000F066FE0220FFF7FDFE200AFFF7FAFEB9
:10488000E0B2FFF7F7FE2846FFF7F4FEC820FFF777
:10489000B7FB0421564800F051FE70BD70B50446C8
:1048A0000421534800F04CFE0320FFF7E3FE200AEA
:1048B000FFF7E0FEE0B2FFF7DDFEFFF7F3FEC5B263
:1048C000C820FFF79DFB0421494800F037FE284629
:1048D00070BD2DE9F04105460E4617460024FFF74E
:1048E000A2FF0421424800F02BFE0220FFF7C2FE87
:1048F000280AFFF7BFFEE8B2FFF7BCFE31E004F084
:104900007F0048BB44B3C820FFF77AFB0421384836
:1049100000F014FE0120FDF701FB02E00120FDF78D
:10492000FDFAFFF751FF00F001000028F6D1012049
:10493000FDF7F4FAFFF777FF04212D4800F000FEA1
:104940000220FFF797FE2919C1F30720FFF792FE17
:104950002919C8B2FFF78EFE305DFFF78BFE601C91
:1049600084B2BC42CBDBC820FFF74AFB04212048BD
:1049700000F0E4FD0120FDF7D1FA02E00120FDF78F
:10498000CDFAFFF721FF00F001000028F6D1BDE8C5
:10499000F0812DE9F04104460E4617464FF000081D
:1049A00000250421124800F0CBFD0320FFF762FE32
:1049B000200AFFF75FFEE0B2FFF75CFE08E0FFF7BA
:1049C00071FE7055681C85B208F101001FFA80F86D
:1049D000BD42F4DBC820FFF713FB0421044800F0BC
:1049E000ADFDBDE8F0810000003C00400008024041
:1049F000000C02401CB50121084600F0C1FF4FF435
:104A00007060009000208DF8040001208DF80700F0
:104A100000208DF8050069461A4800F013FD1CBD02
:104A200008B54FF48061174800F06EFDC0439DF853
:104A3000001060F3000100914FF40061114800F094
:104A400063FDC0439DF8001060F3820100914FF4B4
:104A500000710C4800F058FDC0439DF8001060F351
:104A6000410100914FF48071064800F04DFDC043B4
:104A70009DF8001060F3C30100919DF800100846F6
:104A800008BD0000000002401CB50121022000F01A
:104A900077FF4FF48040009000208DF80400022042
:104AA0008DF8070000208DF805006946084800F0E1
:104AB000C9FC1CBD08B5FFF7B3FF00909DF80000CE
:104AC000C0F3C00008B1012008BD0020FCE70000D1
:104AD0000004024032490143324A1160704770B508
:104AE000002100230F22C4781CB32E4C246804F448
:104AF000E064C4F5E064C4F30721C1F10404E3B247
:104B00000A4144789C40E1B28478144021430C0768
:104B1000210E254C05786155047804F01F05012409
:104B2000AC4005786D11AD0005F1E025C5F80041F8
:104B300009E0047804F01F050124AC401B4D067801
:104B4000761145F8264070BD194A0A400243154BBC
:104B50001B1F1A60704739B1124A121D12680243B6
:104B6000104B1B1D1A6006E00E4A121D126882438C
:104B70000C4B1B1D1A607047042808D14FF0E02130
:104B8000096941F004014FF0E022116107E04FF0A4
:104B9000E021096921F004014FF0E0221161704722
:104BA0000000FA050CED00E000E400E080E100E028
:104BB00080FFFF1F10B50121080200F090FF0021C7
:104BC0004FF4807000F08BFF10BD30B5024600201E
:104BD00000235068F84C20400D790C6844EA052405
:104BE000204350609068F54C2040D1E903542C4399
:104BF0008D682C434D7944EA450420439060D06A87
:104C000020F470000C7D641EE4B2234340EA03509C
:104C1000D06230BD00210160017141718160C160CD
:104C200001610121017570470021E54A1168E54ADB
:104C30001140D0E900231A4383681A43C3681A431A
:104C40001143E14AC2F8041370470021016041603A
:104C50008160C160704721B1826842F001028260C8
:104C600003E0826822F00102826070470A46002158
:104C70004168D64B194011434160704741628262DE
:104C800070470A460021416821F01F01114341602D
:104C9000704738B1CA49096841F40001CA4AC2F8EC
:104CA000041306E0C649096821F40001C64AC2F8A7
:104CB0000413704738B1C249096841F48001C24AFF
:104CC000C2F8041306E0BE49096821F48001BE4A17
:104CD000C2F804137047F0B504460D4600200021C9
:104CE000092D11DDE068A5F10A0606EB4607072647
:104CF00006FA07F18843A5F10A0606EB460603FA11
:104D000006F10843E0600CE0206905EB4507072643
:104D100006FA07F1884305EB450603FA06F1084356
:104D20002061072A0FDA606B561E06EB86071F26E6
:104D300006FA07F18843561E06EB860605FA06F1C9
:104D40000843606322E00D2A0FDA206BD61F06EBC2
:104D500086071F2606FA07F18843D61F06EB86064C
:104D600005FA06F10843206310E0E06AA2F10D069F
:104D700006EB86071F2606FA07F18843A2F10D0607
:104D800006EB860605FA06F10843E062F0BD81688D
:104D900041F0804181607047014600208A6802F03E
:104DA00080420AB1012000E00020704721B18268F2
:104DB00042F48062826003E0826822F48062826052
:104DC000704721B1826842F00202826003E082688B
:104DD00022F002028260704710B50A4600210023CB
:104DE000416821F46041531E41EA4331416010BDE6
:104DF00021B1426842F40062426003E0426822F45A
:104E00000062426070470146C86C80B270476C48CF
:104E1000001D0068704721B1826842F48072826090
:104E200003E0826822F480728260704721B1826858
:104E300042F40072826003E0826822F400728260B1
:104E4000704738B15E49096841F400515E4AC2F8C2
:104E5000041306E05A49096821F400515A4AC2F87D
:104E600004137047F0B504461546002000220026C2
:104E7000092911DDE068A1F10A0707EB470C0727B4
:104E800007FA0CF29043A1F10A0707EB470703FA70
:104E900007F21043E0600CE0206901EB410C0727AA
:104EA00007FA0CF2904301EB410703FA07F21043B3
:104EB0002061A06BC0F30156EF1C06F1010CA7EBBB
:104EC0000C0707EB870C1F2707FA0CF29043EF1C27
:104ED00006F1010CA7EB0C0707EB870701FA07F2B5
:104EE0001043A063F0BD10B50A4600210023816B7A
:104EF00021F44011531E41EA0351816310BD08B5EE
:104F0000002300930090009B0B440093009B1A60C9
:104F100008BD0A460021816821F470211143816097
:104F200070470A460021816821F4401111438160D5
:104F30007047816841F4800181607047014600201C
:104F40008A6802F480020AB1012000E00020704764
:104F500021B1426842F48062426003E0426822F478
:104F600080624260704721B1426842F480524260E0
:104F700003E0426822F480524260704708B502465E
:104F800000200090009201F12800009B184400903E
:104F90000098006880B208BD10B50B460021D9B258
:104FA000012404FA01F11AB144680C43446002E0A0
:104FB00044688C43446010BDFFFEFFFCFDF7FFC05A
:104FC00004230140E030FCFF00200140FFFD3FFFD3
:104FD0000246002013680B400BB1012000E00020C6
:104FE0007047CA430260704770B502460020002334
:104FF00000240B12556801268E4005EA0604156848
:105000001D4015B10CB1012000E0002070BD002250
:105010000A12D3430360704710B50121480700F01E
:105020004DFD00214FF0005000F048FD10BD30B59F
:10503000002200237B4C226840F6FE748440A24389
:10504000D1E900452C438D682C43CD6844EA050323
:1050500003FA00F42243734C226030BD002101604A
:1050600041608160C160704739B16E4A12680123A6
:1050700083401A436B4B1A6006E06A4A12680123A8
:1050800083409A43674B1A60704710B551B1654A27
:10509000121D126804090123A3401A43614B1B1D12
:1050A0001A6009E05F4A121D126804090123A34037
:1050B0009A435C4B1B1D1A6010BD40B15949091D34
:1050C000096841F00301574A121D116007E0554974
:1050D000091D096821F00301524A121D1160704731
:1050E00010B53AB14F4B1B6801FA00F423434D4C05
:1050F000236006E04B4B1B6801FA00F4A343494CC4
:10510000236010BD08B500220092464A009200F1CB
:105110000802009B1A440092009A116008BD08B56D
:10512000002200923F4A009200F11402009B1A44B0
:105130000092009A116008BD30B5002400230828B1
:1051400002D142EA012401E042EA0144354B00F178
:1051500020052B441C6030BD08B50146002000909E
:10516000304800902C2000EB9100009A10440090F1
:105170000098006880B208BD41B12A4A12684FF415
:10518000805383401A43274B1A6007E0254A126870
:105190004FF4805383409A43224B1A60704710B5F6
:1051A0003AB1204B1B6801FA00F423431D4C2360E5
:1051B00006E01C4B1B6801FA00F4A343194C236062
:1051C00010BD10B502460020164B34331B6801FA9F
:1051D00002F423400BB1012000E0002010BD01FAD1
:1051E00000F2104B34331A60704730B5024600208D
:1051F00000230C4C246801FA02F504EA0503094C6B
:105200003434246801FA02F52C4014B10BB10120AA
:1052100000E0002030BD01FA00F2024B34331A6086
:105220007047000000740040002041490860091DDB
:105230000860091D0860091D08603E483C4914319A
:105240000860704700213A498279002A3AD00A461C
:10525000126803689A430B461A600A1D12680368B5
:105260009A430B1D1A60027911440A6803681A43B5
:105270000A602F4A0832126803689A432C4B08339D
:105280001A601A1D126803689A43294B0C331A607E
:105290004279102A0ED11A1F126803681A43244B50
:1052A00008331A601A1D126803681A43204B0C3326
:1052B0001A600DE01E49427911440A6803681A43D6
:1052C0000A6005E0027911440A6803689A430A609B
:1052D00070470021016001710C2141710021817131
:1052E00070471349103109680143114A10321160A7
:1052F0007047014600200E4A143212680A400AB173
:10530000012000E00020704709491431086070470F
:1053100001460020064A143212680A400AB10120F0
:1053200000E0002070470249143108607047000017
:10533000003C0140FFFF7F0010B5044698488442BE
:1053400008D10121084600F086FB0021012000F071
:1053500082FB76E09348844208D10121022000F0CC
:105360007AFB0021022000F076FB6AE08E4884423E
:1053700008D10121042000F06EFB0021042000F080
:105380006AFB5EE08948844208D10121082000F0D0
:1053900062FB0021082000F05EFB52E0844884425A
:1053A00008D10121102000F056FB0021102000F050
:1053B00052FB46E07F48844208D10121202000F0C2
:1053C0004AFB0021202000F046FB3AE07A48844264
:1053D00008D10121402000F03EFB0021402000F0D8
:1053E0003AFB2EE07548844208D10121802000F06C
:1053F00032FB0021802000F02EFB22E07048844226
:1054000008D10121801500F026FB0021A01500F035
:1054100022FB16E06B48844208D10121401500F0C0
:105420001AFB0021601500F016FB0AE06648844272
:1054300007D10121001500F00EFB0021201500F01E
:105440000AFB10BDF0B50A4600210023002400BF6E
:105450003DE0012505FA01F3156805EA03049C42C5
:1054600034D105684F000326BE40B5430560157969
:105470004E00B5400668354305601579012D02D010
:105480001579022D16D185684F000326BE40B5431D
:10549000856055794E00B54086683543856045681E
:1054A00001268E40B5434560456896798E40B6B278
:1054B00035434560C5684F000326BE40B543C5600F
:1054C000D5794E00B540C6683543C560491C1029E2
:1054D000BFD3F0BD4FF6FF71016000210171417132
:1054E0008171C171704708B54FF480320092009A03
:1054F0000A430092009AC261C161009AC261C26906
:105500000092C269009208BD0246002013690B4058
:105510000BB1012000E0002070470146086980B20D
:1055200070470246002053690B400BB1012000E098
:10553000002070470146486980B270470183704778
:10554000418370470AB1018300E0418370474161A4
:10555000704742694A4042617047F0B50023002419
:105560004D07ED0E02FA05F3CE1000F1200555F8B7
:1055700026504E07F70E0F26BE40B543CF1000F160
:10558000200646F82750CE1000F1200555F8265089
:1055900045EA0304CE1000F1200545F82640F0BD91
:1055A000000002400004024000080240000C0240DB
:1055B000001002400014024000180240001C02408B
:1055C000002002400024024000280240F948006800
:1055D00040F00100F74908600020F64908310860F2
:1055E000F4480068F4490840F2490860F348091D8E
:1055F0000860F348EF4984310860F0481038091D0D
:105600000860EC48006820F48020EA490860002027
:10561000E8490C310860E7498C3108607047002187
:10562000E44A921C117011460870704710B501468B
:105630000022002300204A11012A02D1DD4C2368F8
:1056400008E0022A03D1DB4C7034236802E0D94C15
:105650007434236801F01F02012494401C400CB1F3
:10566000012000E0002010BD38B50020009000248B
:10567000002500BF3120FFF7D9FF05460098401CE8
:1056800000900098B0F5A04F01D0002DF2D031204D
:10569000FFF7CCFF08B1012400E00024204638BD0C
:1056A00001460020C34A106820F0F80040EAC1001B
:1056B00010607047C349086070470021BD4A7032CE
:1056C00011701170012802D004280AD104E00121D0
:1056D000B84A7032117005E00521B64A7032117077
:1056E00000E000BF00BF7047B7490860704770B561
:1056F000049C41EA82150126C6EB530645EA06459D
:10570000054345EA0465AB4E361D356070BDAD49B5
:1057100008667047820142EA0172A64B84331A6020
:105720007047A8498866704710B5830143EA016352
:1057300043EA02739F4C8834236010BDA149086777
:105740007047A049C864704702460020994B08334F
:10575000186820F0EC6042EA01031843954B0833C7
:105760001860704702460020924B0833186820F0FA
:10577000784042EA010318438E4B083318607047A3
:10578000014600208B4A0832106820F003000843CD
:105790001060704787480830006800F00C007047C0
:1057A00001460020834A0832106820F0F0000843C8
:1057B00010607047014600207E4A0832106820F4CD
:1057C000E05008431060704701460020794A0832D3
:1057D000106820F4604040EAC10010607047F0B5E6
:1057E000002100220024022500260223714F0837E1
:1057F0003F6807F00C0121B1042905D0082937D1F1
:1058000005E0724F076036E0714F076033E0694F83
:105810003F1D3F68C7F38056664F3F1D3F6807F046
:105820003F036EB16A4FB7FBF3F7DFF888C10CF1A5
:10583000040CDCF800C0CCF3881C07FB0CF40CE073
:10584000624FB7FBF3F7DFF86CC10CF1040CDCF826
:1058500000C0CCF3881C07FB0CF4564F3F1D3F687B
:10586000C7F301477F1C7D00B4FBF5F7076002E03A
:10587000564F076000BF00BF4E4F08373F6807F024
:10588000F0010909534F7A5C0768D7404760494FD8
:1058900008373F6807F4E051890A4E4F7A5C476841
:1058A000D7408760434F08373F6807F46041490B92
:1058B000484F7A5C4768D740C760F0BD002100F4CC
:1058C0004072B2F5407F0AD13A4A0832116821F499
:1058D000F811414A02401143364A08321160354AF4
:1058E00070321268C0F30B031A43324B70331A60E4
:1058F000704735494439086070473349403908607A
:10590000704736490860704701460020294A8C32AA
:10591000106820F01F004A1E1043264A8C32106087
:10592000704701460020234A8C32106820F4F8505A
:105930004A1E40EA02201F4A8C321060704701461E
:1059400000201C4A8C32106820F44010084310607C
:10595000704701460020174A8C32106820F440003E
:1059600008431060704701460020124A8C321068CC
:1059700020F44030084310607047194908607047B0
:1059800039B10C4A3032126802430A4B30331A6084
:1059900006E0084A303212688243064B30331A6000
:1059A0007047F9B1034A343212680243014B343371
:1059B0001A601CE000380240FFFFF6EA10300024B5
:1059C0000030002000004742800E47420024F400CF
:1059D00040787D01C8060020FFFCFF0F5C014742B4
:1059E000E0114742854A12688243844B1A6070472F
:1059F00039B1824A121D12680243804B1B1D1A6086
:105A000006E07E4A121D126882437C4B1B1D1A6001
:105A1000704739B1794A0C3212680243774B0C3324
:105A20001A6006E0754A0C3212688243734B0C33DD
:105A30001A60704739B1714A1032126802436F4BD5
:105A400010331A6006E06D4A1032126882436B4BC5
:105A500010331A60704739B1684A243A1268024319
:105A6000664B243B1A6006E0644A243A126882437B
:105A7000624B243B1A60704739B1604A203A126881
:105A800002435E4B203B1A6006E05C4A203A1268F3
:105A900082435A4B203B1A60704739B1574A1C3A2F
:105AA00012680243554B1C3B1A6006E0534A1C3AED
:105AB00012688243514B1C3B1A60704739B14F4A00
:105AC000143A126802434D4B143B1A6006E04B4AED
:105AD000143A12688243494B143B1A60704739B13B
